{
  "_format": "hh-sol-artifact-1",
  "contractName": "ULoan",
  "sourceName": "contracts/ULoan.sol",
  "abi": [
    {
      "inputs": [
        {
          "internalType": "address",
          "name": "_stablecoin",
          "type": "address"
        }
      ],
      "stateMutability": "nonpayable",
      "type": "constructor"
    },
    {
      "anonymous": false,
      "inputs": [
        {
          "indexed": false,
          "internalType": "uint256",
          "name": "capitalProviderId",
          "type": "uint256"
        },
        {
          "indexed": false,
          "internalType": "uint256",
          "name": "amountRecouped",
          "type": "uint256"
        }
      ],
      "name": "CapitalProviderRecouped",
      "type": "event"
    },
    {
      "anonymous": false,
      "inputs": [
        {
          "indexed": false,
          "internalType": "uint256",
          "name": "amountRecouped",
          "type": "uint256"
        },
        {
          "indexed": false,
          "internalType": "uint256[]",
          "name": "capitalProviderIds",
          "type": "uint256[]"
        }
      ],
      "name": "LenderCapitalRecouped",
      "type": "event"
    },
    {
      "anonymous": false,
      "inputs": [
        {
          "indexed": false,
          "internalType": "uint256",
          "name": "loanId",
          "type": "uint256"
        }
      ],
      "name": "LoanMatchedWithCapital",
      "type": "event"
    },
    {
      "anonymous": false,
      "inputs": [
        {
          "indexed": false,
          "internalType": "uint256",
          "name": "loanId",
          "type": "uint256"
        }
      ],
      "name": "LoanPaidBack",
      "type": "event"
    },
    {
      "anonymous": false,
      "inputs": [
        {
          "indexed": false,
          "internalType": "uint256",
          "name": "loanId",
          "type": "uint256"
        },
        {
          "indexed": false,
          "internalType": "uint256",
          "name": "amount",
          "type": "uint256"
        },
        {
          "indexed": false,
          "internalType": "uint8",
          "name": "borrowerCreditScore",
          "type": "uint8"
        },
        {
          "indexed": false,
          "internalType": "uint16",
          "name": "durationInDays",
          "type": "uint16"
        }
      ],
      "name": "LoanRequested",
      "type": "event"
    },
    {
      "anonymous": false,
      "inputs": [
        {
          "indexed": false,
          "internalType": "uint256",
          "name": "loanId",
          "type": "uint256"
        }
      ],
      "name": "LoanWithdrawn",
      "type": "event"
    },
    {
      "anonymous": false,
      "inputs": [
        {
          "indexed": false,
          "internalType": "uint256",
          "name": "capitalProviderId",
          "type": "uint256"
        },
        {
          "indexed": false,
          "internalType": "uint256",
          "name": "amount",
          "type": "uint256"
        },
        {
          "indexed": false,
          "internalType": "uint8",
          "name": "minRiskLevel",
          "type": "uint8"
        },
        {
          "indexed": false,
          "internalType": "uint8",
          "name": "maxRiskLevel",
          "type": "uint8"
        },
        {
          "indexed": false,
          "internalType": "uint16",
          "name": "lockUpPeriodInDays",
          "type": "uint16"
        }
      ],
      "name": "NewCapitalProvided",
      "type": "event"
    },
    {
      "anonymous": false,
      "inputs": [
        {
          "indexed": true,
          "internalType": "address",
          "name": "previousOwner",
          "type": "address"
        },
        {
          "indexed": true,
          "internalType": "address",
          "name": "newOwner",
          "type": "address"
        }
      ],
      "name": "OwnershipTransferred",
      "type": "event"
    },
    {
      "inputs": [],
      "name": "EPOCH_DURATION_COEFFICIENT_BP",
      "outputs": [
        {
          "internalType": "uint16",
          "name": "",
          "type": "uint16"
        }
      ],
      "stateMutability": "view",
      "type": "function"
    },
    {
      "inputs": [],
      "name": "FEE_BP",
      "outputs": [
        {
          "internalType": "uint16",
          "name": "",
          "type": "uint16"
        }
      ],
      "stateMutability": "view",
      "type": "function"
    },
    {
      "inputs": [],
      "name": "FEE_TO_MATCH_INITIATOR_BP",
      "outputs": [
        {
          "internalType": "uint16",
          "name": "",
          "type": "uint16"
        }
      ],
      "stateMutability": "view",
      "type": "function"
    },
    {
      "inputs": [],
      "name": "FEE_TO_PROTOCOL_OWNER_BP",
      "outputs": [
        {
          "internalType": "uint16",
          "name": "",
          "type": "uint16"
        }
      ],
      "stateMutability": "view",
      "type": "function"
    },
    {
      "inputs": [],
      "name": "MAX_LOAN_DURATION_IN_DAYS",
      "outputs": [
        {
          "internalType": "uint256",
          "name": "",
          "type": "uint256"
        }
      ],
      "stateMutability": "view",
      "type": "function"
    },
    {
      "inputs": [],
      "name": "MAX_RISK_LEVEL",
      "outputs": [
        {
          "internalType": "uint256",
          "name": "",
          "type": "uint256"
        }
      ],
      "stateMutability": "view",
      "type": "function"
    },
    {
      "inputs": [],
      "name": "MIN_DEPOSIT_AMOUNT",
      "outputs": [
        {
          "internalType": "uint256",
          "name": "",
          "type": "uint256"
        }
      ],
      "stateMutability": "view",
      "type": "function"
    },
    {
      "inputs": [],
      "name": "MIN_LOAN_AMOUNT",
      "outputs": [
        {
          "internalType": "uint256",
          "name": "",
          "type": "uint256"
        }
      ],
      "stateMutability": "view",
      "type": "function"
    },
    {
      "inputs": [],
      "name": "MIN_LOAN_DURATION_IN_DAYS",
      "outputs": [
        {
          "internalType": "uint256",
          "name": "",
          "type": "uint256"
        }
      ],
      "stateMutability": "view",
      "type": "function"
    },
    {
      "inputs": [],
      "name": "MIN_LOCKUP_PERIOD_IN_DAYS",
      "outputs": [
        {
          "internalType": "uint256",
          "name": "",
          "type": "uint256"
        }
      ],
      "stateMutability": "view",
      "type": "function"
    },
    {
      "inputs": [],
      "name": "MIN_RISK_LEVEL",
      "outputs": [
        {
          "internalType": "uint256",
          "name": "",
          "type": "uint256"
        }
      ],
      "stateMutability": "view",
      "type": "function"
    },
    {
      "inputs": [],
      "name": "RISK_COEFFICIENT_BP",
      "outputs": [
        {
          "internalType": "uint16",
          "name": "",
          "type": "uint16"
        }
      ],
      "stateMutability": "view",
      "type": "function"
    },
    {
      "inputs": [],
      "name": "RISK_FREE_RATE_BP",
      "outputs": [
        {
          "internalType": "uint16",
          "name": "",
          "type": "uint16"
        }
      ],
      "stateMutability": "view",
      "type": "function"
    },
    {
      "inputs": [],
      "name": "ULOAN_EPOCH_IN_DAYS",
      "outputs": [
        {
          "internalType": "uint16",
          "name": "",
          "type": "uint16"
        }
      ],
      "stateMutability": "view",
      "type": "function"
    },
    {
      "inputs": [
        {
          "internalType": "uint256",
          "name": "",
          "type": "uint256"
        }
      ],
      "name": "capitalProviders",
      "outputs": [
        {
          "internalType": "address",
          "name": "lender",
          "type": "address"
        },
        {
          "internalType": "uint8",
          "name": "minRiskLevel",
          "type": "uint8"
        },
        {
          "internalType": "uint8",
          "name": "maxRiskLevel",
          "type": "uint8"
        },
        {
          "internalType": "uint16",
          "name": "lockUpPeriodInDays",
          "type": "uint16"
        },
        {
          "internalType": "uint256",
          "name": "amountProvided",
          "type": "uint256"
        },
        {
          "internalType": "uint256",
          "name": "amountAvailable",
          "type": "uint256"
        }
      ],
      "stateMutability": "view",
      "type": "function"
    },
    {
      "inputs": [
        {
          "internalType": "uint256",
          "name": "_amount",
          "type": "uint256"
        },
        {
          "internalType": "uint8",
          "name": "_minRiskLevel",
          "type": "uint8"
        },
        {
          "internalType": "uint8",
          "name": "_maxRiskLevel",
          "type": "uint8"
        },
        {
          "internalType": "uint16",
          "name": "_lockUpPeriodInDays",
          "type": "uint16"
        }
      ],
      "name": "depositCapital",
      "outputs": [],
      "stateMutability": "nonpayable",
      "type": "function"
    },
    {
      "inputs": [
        {
          "internalType": "uint256",
          "name": "_amount",
          "type": "uint256"
        },
        {
          "internalType": "uint8",
          "name": "_creditScore",
          "type": "uint8"
        },
        {
          "internalType": "uint16",
          "name": "_durationInDays",
          "type": "uint16"
        }
      ],
      "name": "getInterestEstimateInBasisPoint",
      "outputs": [
        {
          "internalType": "uint16",
          "name": "",
          "type": "uint16"
        }
      ],
      "stateMutability": "view",
      "type": "function"
    },
    {
      "inputs": [],
      "name": "getLoansMatchingFees",
      "outputs": [],
      "stateMutability": "nonpayable",
      "type": "function"
    },
    {
      "inputs": [],
      "name": "getProtocolOwnerFees",
      "outputs": [],
      "stateMutability": "nonpayable",
      "type": "function"
    },
    {
      "inputs": [
        {
          "internalType": "uint256",
          "name": "_amount",
          "type": "uint256"
        },
        {
          "internalType": "uint8",
          "name": "_minRiskLevel",
          "type": "uint8"
        },
        {
          "internalType": "uint8",
          "name": "_maxRiskLevel",
          "type": "uint8"
        },
        {
          "internalType": "uint16",
          "name": "_lockUpPeriodInDays",
          "type": "uint16"
        }
      ],
      "name": "getReturnEstimateInBasisPoint",
      "outputs": [
        {
          "internalType": "uint16",
          "name": "",
          "type": "uint16"
        },
        {
          "internalType": "uint16",
          "name": "",
          "type": "uint16"
        }
      ],
      "stateMutability": "view",
      "type": "function"
    },
    {
      "inputs": [
        {
          "internalType": "uint256",
          "name": "",
          "type": "uint256"
        }
      ],
      "name": "loans",
      "outputs": [
        {
          "internalType": "address",
          "name": "borrower",
          "type": "address"
        },
        {
          "internalType": "uint8",
          "name": "creditScore",
          "type": "uint8"
        },
        {
          "internalType": "uint256",
          "name": "lastActionTimestamp",
          "type": "uint256"
        },
        {
          "internalType": "uint16",
          "name": "durationInDays",
          "type": "uint16"
        },
        {
          "internalType": "uint256",
          "name": "amountRequested",
          "type": "uint256"
        },
        {
          "internalType": "uint256",
          "name": "amountToRepay",
          "type": "uint256"
        },
        {
          "internalType": "uint16",
          "name": "totalNumberOfEpochsToPay",
          "type": "uint16"
        },
        {
          "internalType": "uint16",
          "name": "numberOfEpochsPaid",
          "type": "uint16"
        },
        {
          "internalType": "uint256",
          "name": "amountToRepayEveryEpoch",
          "type": "uint256"
        },
        {
          "internalType": "address",
          "name": "matchMaker",
          "type": "address"
        },
        {
          "internalType": "enum ULoan.LoanState",
          "name": "state",
          "type": "uint8"
        },
        {
          "internalType": "string",
          "name": "closeReason",
          "type": "string"
        }
      ],
      "stateMutability": "view",
      "type": "function"
    },
    {
      "inputs": [
        {
          "internalType": "uint256[]",
          "name": "_capitalProviderIds",
          "type": "uint256[]"
        },
        {
          "internalType": "uint256[]",
          "name": "_capitalProviderAmounts",
          "type": "uint256[]"
        },
        {
          "internalType": "uint256",
          "name": "_loanId",
          "type": "uint256"
        }
      ],
      "name": "matchLoanWithCapital",
      "outputs": [],
      "stateMutability": "nonpayable",
      "type": "function"
    },
    {
      "inputs": [],
      "name": "owner",
      "outputs": [
        {
          "internalType": "address",
          "name": "",
          "type": "address"
        }
      ],
      "stateMutability": "view",
      "type": "function"
    },
    {
      "inputs": [
        {
          "internalType": "uint256",
          "name": "_loanId",
          "type": "uint256"
        }
      ],
      "name": "payLoan",
      "outputs": [],
      "stateMutability": "nonpayable",
      "type": "function"
    },
    {
      "inputs": [],
      "name": "recoupAllCapital",
      "outputs": [],
      "stateMutability": "nonpayable",
      "type": "function"
    },
    {
      "inputs": [
        {
          "internalType": "uint256",
          "name": "_capitalProviderId",
          "type": "uint256"
        }
      ],
      "name": "recoupCapitalPerCapitalProvided",
      "outputs": [],
      "stateMutability": "nonpayable",
      "type": "function"
    },
    {
      "inputs": [],
      "name": "renounceOwnership",
      "outputs": [],
      "stateMutability": "nonpayable",
      "type": "function"
    },
    {
      "inputs": [
        {
          "internalType": "uint256",
          "name": "_amount",
          "type": "uint256"
        },
        {
          "internalType": "uint16",
          "name": "_durationInDays",
          "type": "uint16"
        }
      ],
      "name": "requestLoan",
      "outputs": [],
      "stateMutability": "nonpayable",
      "type": "function"
    },
    {
      "inputs": [],
      "name": "stablecoin",
      "outputs": [
        {
          "internalType": "contract IERC20",
          "name": "",
          "type": "address"
        }
      ],
      "stateMutability": "view",
      "type": "function"
    },
    {
      "inputs": [
        {
          "internalType": "address",
          "name": "newOwner",
          "type": "address"
        }
      ],
      "name": "transferOwnership",
      "outputs": [],
      "stateMutability": "nonpayable",
      "type": "function"
    },
    {
      "inputs": [
        {
          "internalType": "uint256",
          "name": "_loanId",
          "type": "uint256"
        }
      ],
      "name": "withdrawLoanFunds",
      "outputs": [],
      "stateMutability": "nonpayable",
      "type": "function"
    }
  ],
  "bytecode": "0x60806040526007600160146101000a81548161ffff021916908361ffff160217905550678ac7230489e80000600255600160149054906101000a900461ffff1661ffff1660035560016004556064600555600254600655600160149054906101000a900461ffff1661ffff166007556034600160149054906101000a900461ffff166200008d91906200035d565b61ffff166008556064600960006101000a81548161ffff021916908361ffff1602179055506014600960026101000a81548161ffff021916908361ffff1602179055506001600960046101000a81548161ffff021916908361ffff16021790555060c8600960066101000a81548161ffff021916908361ffff1602179055506064600960086101000a81548161ffff021916908361ffff160217905550600960089054906101000a900461ffff16600960069054906101000a900461ffff166200015891906200031e565b6009600a6101000a81548161ffff021916908361ffff1602179055503480156200018157600080fd5b50604051620055ca380380620055ca8339818101604052810190620001a79190620002f2565b620001c7620001bb6200020f60201b60201c565b6200021760201b60201c565b80600160006101000a81548173ffffffffffffffffffffffffffffffffffffffff021916908373ffffffffffffffffffffffffffffffffffffffff160217905550506200042b565b600033905090565b60008060009054906101000a900473ffffffffffffffffffffffffffffffffffffffff169050816000806101000a81548173ffffffffffffffffffffffffffffffffffffffff021916908373ffffffffffffffffffffffffffffffffffffffff1602179055508173ffffffffffffffffffffffffffffffffffffffff168173ffffffffffffffffffffffffffffffffffffffff167f8be0079c531659141344cd1fd0a4f28419497f9722a3daafe3b4186f6b6457e060405160405180910390a35050565b600081519050620002ec8162000411565b92915050565b6000602082840312156200030557600080fd5b60006200031584828501620002db565b91505092915050565b60006200032b82620003b4565b91506200033883620003b4565b92508261ffff03821115620003525762000351620003e2565b5b828201905092915050565b60006200036a82620003b4565b91506200037783620003b4565b92508161ffff0483118215151615620003955762000394620003e2565b5b828202905092915050565b6000620003ad82620003c2565b9050919050565b600061ffff82169050919050565b600073ffffffffffffffffffffffffffffffffffffffff82169050919050565b7f4e487b7100000000000000000000000000000000000000000000000000000000600052601160045260246000fd5b6200041c81620003a0565b81146200042857600080fd5b50565b61518f806200043b6000396000f3fe608060405234801561001057600080fd5b50600436106101e55760003560e01c80639351fc791161010f578063de0f6ff0116100a2578063f2fde38b11610071578063f2fde38b14610527578063f2fef0e814610543578063f57726481461054d578063fc9edcff1461056b576101e5565b8063de0f6ff014610494578063e1ec3c68146104b2578063e9cbd822146104ed578063e9e00a5c1461050b576101e5565b8063a8d7b3ec116100de578063a8d7b3ec14610432578063af8317681461044e578063b9d276e31461046c578063c19400e11461048a576101e5565b80639351fc79146103b757806394ce01c8146103d557806396fa212f146103df578063a80fb586146103fd576101e5565b80636bc232721161018757806378d954721161015657806378d95472146103415780637ce0267d1461035f57806384190f551461037d5780638da5cb5b14610399576101e5565b80636bc23272146102cb5780636f323df4146102e9578063715018a61461031957806374eef6e814610323576101e5565b80631ddea99d116101c35780631ddea99d146102405780631ea30fef1461025e57806328feb3211461027c5780635a1a75f1146102ad576101e5565b806304ed2b27146101ea5780630675b0bc146102085780630dade0d114610224575b600080fd5b6101f2610587565b6040516101ff9190613f4c565b60405180910390f35b610222600480360381019061021d91906132a7565b61058d565b005b61023e6004803603810190610239919061327e565b610983565b005b610248610c9a565b6040516102559190613f08565b60405180910390f35b610266610cae565b6040516102739190613f4c565b60405180910390f35b61029660048036038101906102919190613332565b610cb4565b6040516102a4929190613f23565b60405180910390f35b6102b5610ed6565b6040516102c29190613f08565b60405180910390f35b6102d3610eea565b6040516102e09190613f4c565b60405180910390f35b61030360048036038101906102fe91906132e3565b610ef0565b6040516103109190613f08565b60405180910390f35b610321611059565b005b61032b6110e1565b6040516103389190613f08565b60405180910390f35b6103496110f5565b6040516103569190613f08565b60405180910390f35b610367611109565b6040516103749190613f08565b60405180910390f35b610397600480360381019061039291906131cc565b61111d565b005b6103a1611924565b6040516103ae9190613930565b60405180910390f35b6103bf61194d565b6040516103cc9190613f4c565b60405180910390f35b6103dd611953565b005b6103e7611c36565b6040516103f49190613f4c565b60405180910390f35b6104176004803603810190610412919061327e565b611c3c565b60405161042996959493929190613a6c565b60405180910390f35b61044c6004803603810190610447919061327e565b611cc0565b005b6104566121f7565b6040516104639190613f08565b60405180910390f35b61047461220b565b6040516104819190613f4c565b60405180910390f35b610492612211565b005b61049c6123c9565b6040516104a99190613f08565b60405180910390f35b6104cc60048036038101906104c7919061327e565b6123dd565b6040516104e49c9b9a999897969594939291906139ab565b60405180910390f35b6104f5612549565b6040516105029190613acd565b60405180910390f35b61052560048036038101906105209190613332565b61256f565b005b610541600480360381019061053c91906131a3565b6129c5565b005b61054b612abd565b005b610555612c31565b6040516105629190613f4c565b60405180910390f35b6105856004803603810190610580919061327e565b612c37565b005b60055481565b6000600f60003373ffffffffffffffffffffffffffffffffffffffff1673ffffffffffffffffffffffffffffffffffffffff16815260200190815260200160002060009054906101000a900460ff16905060008160ff1611610624576040517f08c379a000000000000000000000000000000000000000000000000000000000815260040161061b90613c88565b60405180910390fd5b6007548261ffff16101561066d576040517f08c379a000000000000000000000000000000000000000000000000000000000815260040161066490613ec8565b60405180910390fd5b6008548261ffff1611156106b6576040517f08c379a00000000000000000000000000000000000000000000000000000000081526004016106ad90613c28565b60405180910390fd5b6000600160149054906101000a900461ffff16836106d49190614429565b61ffff1614610718576040517f08c379a000000000000000000000000000000000000000000000000000000000815260040161070f90613e48565b60405180910390fd5b60065483101561075d576040517f08c379a000000000000000000000000000000000000000000000000000000000815260040161075490613bc8565b60405180910390fd5b6000600160149054906101000a900461ffff168361077b919061413b565b905060006107968561078d8585612ed2565b61ffff16612f5f565b856107a191906140e5565b90506000600160149054906101000a900461ffff16856107c1919061413b565b9050600d60008154809291906107d6906143e0565b91905055506000600e6000600d5481526020019081526020016000209050338160000160006101000a81548173ffffffffffffffffffffffffffffffffffffffff021916908373ffffffffffffffffffffffffffffffffffffffff160217905550848160000160146101000a81548160ff021916908360ff160217905550428160010181905550858160020160006101000a81548161ffff021916908361ffff160217905550868160030181905550828160040181905550600060ff168160050160026101000a81548161ffff021916908361ffff160217905550818160050160006101000a81548161ffff021916908361ffff1602179055508161ffff16876108e0919061416c565b816006018190555060008160090160006101000a81548160ff02191690836004811115610936577f4e487b7100000000000000000000000000000000000000000000000000000000600052602160045260246000fd5b02179055507f7722f473b37b021a54db94de783bc81d8ea00ab0636a52d88fa32583b8a83e12600d548887896040516109729493929190613fc0565b60405180910390a150505050505050565b6000600e600083815260200190815260200160002090503373ffffffffffffffffffffffffffffffffffffffff168160000160009054906101000a900473ffffffffffffffffffffffffffffffffffffffff1673ffffffffffffffffffffffffffffffffffffffff1614610a2c576040517f08c379a0000000000000000000000000000000000000000000000000000000008152600401610a2390613cc8565b60405180910390fd5b60016004811115610a66577f4e487b7100000000000000000000000000000000000000000000000000000000600052602160045260246000fd5b8160090160009054906101000a900460ff166004811115610ab0577f4e487b7100000000000000000000000000000000000000000000000000000000600052602160045260246000fd5b14610af0576040517f08c379a0000000000000000000000000000000000000000000000000000000008152600401610ae790613c08565b60405180910390fd5b6000600160009054906101000a900473ffffffffffffffffffffffffffffffffffffffff1673ffffffffffffffffffffffffffffffffffffffff1663a9059cbb8360000160009054906101000a900473ffffffffffffffffffffffffffffffffffffffff1684600301546040518363ffffffff1660e01b8152600401610b77929190613982565b602060405180830381600087803b158015610b9157600080fd5b505af1158015610ba5573d6000803e3d6000fd5b505050506040513d601f19601f82011682018060405250810190610bc99190613255565b905080610c0b576040517f08c379a0000000000000000000000000000000000000000000000000000000008152600401610c0290613de8565b60405180910390fd5b60028260090160006101000a81548160ff02191690836004811115610c59577f4e487b7100000000000000000000000000000000000000000000000000000000600052602160045260246000fd5b02179055507f80d20af2588d80a09297ff6168a12b09b961c8034b35de8001af787cc6d57bdb83604051610c8d9190613f4c565b60405180910390a1505050565b600960049054906101000a900461ffff1681565b60025481565b60008085858585600254841015610d00576040517f08c379a0000000000000000000000000000000000000000000000000000000008152600401610cf790613e68565b60405180910390fd5b6004548360ff161015610d48576040517f08c379a0000000000000000000000000000000000000000000000000000000008152600401610d3f90613e88565b60405180910390fd5b8260ff168260ff161015610d91576040517f08c379a0000000000000000000000000000000000000000000000000000000008152600401610d8890613c48565b60405180910390fd5b6005548260ff161115610dd9576040517f08c379a0000000000000000000000000000000000000000000000000000000008152600401610dd090613b28565b60405180910390fd5b6003548161ffff161015610e22576040517f08c379a0000000000000000000000000000000000000000000000000000000008152600401610e1990613e08565b60405180910390fd5b6000600160149054906101000a900461ffff1682610e409190614429565b61ffff1614610e84576040517f08c379a0000000000000000000000000000000000000000000000000000000008152600401610e7b90613b48565b60405180910390fd5b6000600160149054906101000a900461ffff1688610ea2919061413b565b90506000610eb08b83612f90565b90506000610ebe8b84612f90565b90508181985098505050505050505094509492505050565b600960009054906101000a900461ffff1681565b60045481565b60006007548261ffff161015610f3b576040517f08c379a0000000000000000000000000000000000000000000000000000000008152600401610f3290613ec8565b60405180910390fd5b6008548261ffff161115610f84576040517f08c379a0000000000000000000000000000000000000000000000000000000008152600401610f7b90613c28565b60405180910390fd5b6000600160149054906101000a900461ffff1683610fa29190614429565b61ffff1614610fe6576040517f08c379a0000000000000000000000000000000000000000000000000000000008152600401610fdd90613e48565b60405180910390fd5b60065484101561102b576040517f08c379a000000000000000000000000000000000000000000000000000000000815260040161102290613bc8565b60405180910390fd5b61105083600160149054906101000a900461ffff168461104b919061413b565b612ed2565b90509392505050565b611061612fcc565b73ffffffffffffffffffffffffffffffffffffffff1661107f611924565b73ffffffffffffffffffffffffffffffffffffffff16146110d5576040517f08c379a00000000000000000000000000000000000000000000000000000000081526004016110cc90613dc8565b60405180910390fd5b6110df6000612fd4565b565b600160149054906101000a900461ffff1681565b600960089054906101000a900461ffff1681565b600960029054906101000a900461ffff1681565b6000600e600083815260200190815260200160002090506000600481111561116e577f4e487b7100000000000000000000000000000000000000000000000000000000600052602160045260246000fd5b8160090160009054906101000a900460ff1660048111156111b8577f4e487b7100000000000000000000000000000000000000000000000000000000600052602160045260246000fd5b146111f8576040517f08c379a00000000000000000000000000000000000000000000000000000000081526004016111ef90613ee8565b60405180910390fd5b838390508686905014611240576040517f08c379a000000000000000000000000000000000000000000000000000000000815260040161123790613d68565b60405180910390fd5b600080600090505b858590508110156112b35785858281811061128c577f4e487b7100000000000000000000000000000000000000000000000000000000600052603260045260246000fd5b905060200201358261129e91906140e5565b915080806112ab906143e0565b915050611248565b50808260030154146112fa576040517f08c379a00000000000000000000000000000000000000000000000000000000081526004016112f190613d88565b60405180910390fd5b60005b8787905081101561184457600a54888883818110611344577f4e487b7100000000000000000000000000000000000000000000000000000000600052603260045260246000fd5b90506020020135111561138c576040517f08c379a000000000000000000000000000000000000000000000000000000000815260040161138390613da8565b60405180910390fd5b6000600b60008a8a858181106113cb577f4e487b7100000000000000000000000000000000000000000000000000000000600052603260045260246000fd5b905060200201358152602001908152602001600020905086868381811061141b577f4e487b7100000000000000000000000000000000000000000000000000000000600052603260045260246000fd5b9050602002013581600201541015611468576040517f08c379a000000000000000000000000000000000000000000000000000000000815260040161145f90613b88565b60405180910390fd5b6114828460000160149054906101000a900460ff16613098565b60ff168160000160149054906101000a900460ff1660ff1610156114db576040517f08c379a00000000000000000000000000000000000000000000000000000000081526004016114d290613d28565b60405180910390fd5b6114f58460000160149054906101000a900460ff16613098565b60ff168160000160159054906101000a900460ff1660ff16111561154e576040517f08c379a000000000000000000000000000000000000000000000000000000000815260040161154590613ce8565b60405180910390fd5b8360020160009054906101000a900461ffff1661ffff168160000160169054906101000a900461ffff1661ffff1610156115bd576040517f08c379a00000000000000000000000000000000000000000000000000000000081526004016115b490613ca8565b60405180910390fd5b6000600160149054906101000a900461ffff168560020160009054906101000a900461ffff166115ed919061413b565b9050600061161461160e8760000160149054906101000a900460ff16613098565b83612f90565b905060006116658a8a87818110611654577f4e487b7100000000000000000000000000000000000000000000000000000000600052603260045260246000fd5b905060200201358361ffff16612f5f565b8a8a8781811061169e577f4e487b7100000000000000000000000000000000000000000000000000000000600052603260045260246000fd5b905060200201356116af91906140e5565b905083600301889080600181540180825580915050600190039060005260206000200160009091909190915055898986818110611715577f4e487b7100000000000000000000000000000000000000000000000000000000600052603260045260246000fd5b9050602002013584600201600082825461172f9190614267565b925050819055508660080160405180608001604052808e8e8981811061177e577f4e487b7100000000000000000000000000000000000000000000000000000000600052603260045260246000fd5b9050602002013581526020018c8c898181106117c3577f4e487b7100000000000000000000000000000000000000000000000000000000600052603260045260246000fd5b9050602002013581526020018381526020016000815250908060018154018082558091505060019003906000526020600020906004020160009091909190915060008201518160000155602082015181600101556040820151816002015560608201518160030155505050505050808061183c906143e0565b9150506112fd565b5060018260090160006101000a81548160ff02191690836004811115611893577f4e487b7100000000000000000000000000000000000000000000000000000000600052602160045260246000fd5b0217905550428260010181905550338260070160006101000a81548173ffffffffffffffffffffffffffffffffffffffff021916908373ffffffffffffffffffffffffffffffffffffffff1602179055507ffde33b8869af8f25c9d3bf154cd6594dd24be754e7c9ee59e760c64aca2bef62836040516119139190613f4c565b60405180910390a150505050505050565b60008060009054906101000a900473ffffffffffffffffffffffffffffffffffffffff16905090565b60075481565b6000600c60003373ffffffffffffffffffffffffffffffffffffffff1673ffffffffffffffffffffffffffffffffffffffff1681526020019081526020016000208054806020026020016040519081016040528092919081815260200182805480156119de57602002820191906000526020600020905b8154815260200190600101908083116119ca575b505050505090506000815111611a29576040517f08c379a0000000000000000000000000000000000000000000000000000000008152600401611a2090613b08565b60405180910390fd5b600080600090505b8251811015611ac1576000600b6000858481518110611a79577f4e487b7100000000000000000000000000000000000000000000000000000000600052603260045260246000fd5b602002602001015181526020019081526020016000209050806002015483611aa191906140e5565b925060008160020181905550508080611ab9906143e0565b915050611a31565b5060008111611b05576040517f08c379a0000000000000000000000000000000000000000000000000000000008152600401611afc90613e28565b60405180910390fd5b6000600160009054906101000a900473ffffffffffffffffffffffffffffffffffffffff1673ffffffffffffffffffffffffffffffffffffffff1663a9059cbb33846040518363ffffffff1660e01b8152600401611b64929190613982565b602060405180830381600087803b158015611b7e57600080fd5b505af1158015611b92573d6000803e3d6000fd5b505050506040513d601f19601f82011682018060405250810190611bb69190613255565b905080611bf8576040517f08c379a0000000000000000000000000000000000000000000000000000000008152600401611bef90613c68565b60405180910390fd5b7f8aa4f17a96fdcc81d5fc10c984eacefc79d412b5512e93b0c2ec71b11834defe8284604051611c29929190613f67565b60405180910390a1505050565b60065481565b600b6020528060005260406000206000915090508060000160009054906101000a900473ffffffffffffffffffffffffffffffffffffffff16908060000160149054906101000a900460ff16908060000160159054906101000a900460ff16908060000160169054906101000a900461ffff16908060010154908060020154905086565b6000600e600083815260200190815260200160002090503373ffffffffffffffffffffffffffffffffffffffff168160000160009054906101000a900473ffffffffffffffffffffffffffffffffffffffff1673ffffffffffffffffffffffffffffffffffffffff1614611d69576040517f08c379a0000000000000000000000000000000000000000000000000000000008152600401611d6090613d08565b60405180910390fd5b60026004811115611da3577f4e487b7100000000000000000000000000000000000000000000000000000000600052602160045260246000fd5b8160090160009054906101000a900460ff166004811115611ded577f4e487b7100000000000000000000000000000000000000000000000000000000600052602160045260246000fd5b14611e2d576040517f08c379a0000000000000000000000000000000000000000000000000000000008152600401611e2490613be8565b60405180910390fd5b6000600160009054906101000a900473ffffffffffffffffffffffffffffffffffffffff1673ffffffffffffffffffffffffffffffffffffffff166323b872dd333085600601546040518463ffffffff1660e01b8152600401611e929392919061394b565b602060405180830381600087803b158015611eac57600080fd5b505af1158015611ec0573d6000803e3d6000fd5b505050506040513d601f19601f82011682018060405250810190611ee49190613255565b905080611f26576040517f08c379a0000000000000000000000000000000000000000000000000000000008152600401611f1d90613d48565b60405180910390fd5b42826001018190555060018260050160029054906101000a900461ffff16611f4e91906140ad565b8260050160026101000a81548161ffff021916908361ffff16021790555060005b826008018054905081101561205d576000836008018281548110611fbc577f4e487b7100000000000000000000000000000000000000000000000000000000600052603260045260246000fd5b9060005260206000209060040201905060008460050160009054906101000a900461ffff1661ffff168260020154611ff4919061416c565b90508082600301600082825461200a91906140e5565b925050819055506000600b60008460000154815260200190815260200160002090508181600201600082825461204091906140e5565b925050819055505050508080612055906143e0565b915050611f6f565b508160050160009054906101000a900461ffff1661ffff168260050160029054906101000a900461ffff1661ffff1614156121f25760038260090160006101000a81548160ff021916908360048111156120e0577f4e487b7100000000000000000000000000000000000000000000000000000000600052602160045260246000fd5b02179055506121078260030154600960069054906101000a900461ffff1661ffff16612f5f565b601060008460070160009054906101000a900473ffffffffffffffffffffffffffffffffffffffff1673ffffffffffffffffffffffffffffffffffffffff1673ffffffffffffffffffffffffffffffffffffffff168152602001908152602001600020600082825461217991906140e5565b925050819055506121a28260030154600960089054906101000a900461ffff1661ffff16612f5f565b601160008282546121b391906140e5565b925050819055507f60c5bf138604dd0054d792d746e9850320594eff02d83fad60ac81adb9184b24836040516121e99190613f4c565b60405180910390a15b505050565b6009600a9054906101000a900461ffff1681565b60035481565b6000601060003373ffffffffffffffffffffffffffffffffffffffff1673ffffffffffffffffffffffffffffffffffffffff168152602001908152602001600020541415612294576040517f08c379a000000000000000000000000000000000000000000000000000000000815260040161228b90613ae8565b60405180910390fd5b6000600160009054906101000a900473ffffffffffffffffffffffffffffffffffffffff1673ffffffffffffffffffffffffffffffffffffffff1663a9059cbb33601060003373ffffffffffffffffffffffffffffffffffffffff1673ffffffffffffffffffffffffffffffffffffffff168152602001908152602001600020546040518363ffffffff1660e01b8152600401612332929190613982565b602060405180830381600087803b15801561234c57600080fd5b505af1158015612360573d6000803e3d6000fd5b505050506040513d601f19601f820116820180604052508101906123849190613255565b9050806123c6576040517f08c379a00000000000000000000000000000000000000000000000000000000081526004016123bd90613c68565b60405180910390fd5b50565b600960069054906101000a900461ffff1681565b600e6020528060005260406000206000915090508060000160009054906101000a900473ffffffffffffffffffffffffffffffffffffffff16908060000160149054906101000a900460ff16908060010154908060020160009054906101000a900461ffff16908060030154908060040154908060050160009054906101000a900461ffff16908060050160029054906101000a900461ffff16908060060154908060070160009054906101000a900473ffffffffffffffffffffffffffffffffffffffff16908060090160009054906101000a900460ff169080600a0180546124c6906143ae565b80601f01602080910402602001604051908101604052809291908181526020018280546124f2906143ae565b801561253f5780601f106125145761010080835404028352916020019161253f565b820191906000526020600020905b81548152906001019060200180831161252257829003601f168201915b505050505090508c565b600160009054906101000a900473ffffffffffffffffffffffffffffffffffffffff1681565b838383836002548410156125b8576040517f08c379a00000000000000000000000000000000000000000000000000000000081526004016125af90613e68565b60405180910390fd5b6004548360ff161015612600576040517f08c379a00000000000000000000000000000000000000000000000000000000081526004016125f790613e88565b60405180910390fd5b8260ff168260ff161015612649576040517f08c379a000000000000000000000000000000000000000000000000000000000815260040161264090613c48565b60405180910390fd5b6005548260ff161115612691576040517f08c379a000000000000000000000000000000000000000000000000000000000815260040161268890613b28565b60405180910390fd5b6003548161ffff1610156126da576040517f08c379a00000000000000000000000000000000000000000000000000000000081526004016126d190613e08565b60405180910390fd5b6000600160149054906101000a900461ffff16826126f89190614429565b61ffff161461273c576040517f08c379a000000000000000000000000000000000000000000000000000000000815260040161273390613b48565b60405180910390fd5b6000600160009054906101000a900473ffffffffffffffffffffffffffffffffffffffff1673ffffffffffffffffffffffffffffffffffffffff166323b872dd33308c6040518463ffffffff1660e01b815260040161279d9392919061394b565b602060405180830381600087803b1580156127b757600080fd5b505af11580156127cb573d6000803e3d6000fd5b505050506040513d601f19601f820116820180604052508101906127ef9190613255565b905080612831576040517f08c379a000000000000000000000000000000000000000000000000000000000815260040161282890613d48565b60405180910390fd5b600a6000815480929190612844906143e0565b91905055506000600b6000600a5481526020019081526020016000209050338160000160006101000a81548173ffffffffffffffffffffffffffffffffffffffff021916908373ffffffffffffffffffffffffffffffffffffffff160217905550888160000160146101000a81548160ff021916908360ff160217905550878160000160156101000a81548160ff021916908360ff160217905550868160000160166101000a81548161ffff021916908361ffff160217905550898160010181905550898160020181905550600c60003373ffffffffffffffffffffffffffffffffffffffff1673ffffffffffffffffffffffffffffffffffffffff168152602001908152602001600020600a5490806001815401808255809150506001900390600052602060002001600090919091909150557f25df0c7e962e4bc702adc27ab2fd8b03e966ac294bb0139e4e15a2dc40be8689600a548b8b8b8b6040516129b1959493929190614005565b60405180910390a150505050505050505050565b6129cd612fcc565b73ffffffffffffffffffffffffffffffffffffffff166129eb611924565b73ffffffffffffffffffffffffffffffffffffffff1614612a41576040517f08c379a0000000000000000000000000000000000000000000000000000000008152600401612a3890613dc8565b60405180910390fd5b600073ffffffffffffffffffffffffffffffffffffffff168173ffffffffffffffffffffffffffffffffffffffff161415612ab1576040517f08c379a0000000000000000000000000000000000000000000000000000000008152600401612aa890613ba8565b60405180910390fd5b612aba81612fd4565b50565b612ac5612fcc565b73ffffffffffffffffffffffffffffffffffffffff16612ae3611924565b73ffffffffffffffffffffffffffffffffffffffff1614612b39576040517f08c379a0000000000000000000000000000000000000000000000000000000008152600401612b3090613dc8565b60405180910390fd5b6000600160009054906101000a900473ffffffffffffffffffffffffffffffffffffffff1673ffffffffffffffffffffffffffffffffffffffff1663a9059cbb336011546040518363ffffffff1660e01b8152600401612b9a929190613982565b602060405180830381600087803b158015612bb457600080fd5b505af1158015612bc8573d6000803e3d6000fd5b505050506040513d601f19601f82011682018060405250810190612bec9190613255565b905080612c2e576040517f08c379a0000000000000000000000000000000000000000000000000000000008152600401612c2590613c68565b60405180910390fd5b50565b60085481565b600a54811115612c7c576040517f08c379a0000000000000000000000000000000000000000000000000000000008152600401612c7390613da8565b60405180910390fd5b6000600b600083815260200190815260200160002090506000816002015490503373ffffffffffffffffffffffffffffffffffffffff168260000160009054906101000a900473ffffffffffffffffffffffffffffffffffffffff1673ffffffffffffffffffffffffffffffffffffffff1614612d2e576040517f08c379a0000000000000000000000000000000000000000000000000000000008152600401612d2590613ea8565b60405180910390fd5b6000811015612d72576040517f08c379a0000000000000000000000000000000000000000000000000000000008152600401612d6990613b68565b60405180910390fd5b6000600160009054906101000a900473ffffffffffffffffffffffffffffffffffffffff1673ffffffffffffffffffffffffffffffffffffffff1663a9059cbb8460000160009054906101000a900473ffffffffffffffffffffffffffffffffffffffff16846040518363ffffffff1660e01b8152600401612df5929190613982565b602060405180830381600087803b158015612e0f57600080fd5b505af1158015612e23573d6000803e3d6000fd5b505050506040513d601f19601f82011682018060405250810190612e479190613255565b905080612e89576040517f08c379a0000000000000000000000000000000000000000000000000000000008152600401612e8090613c68565b60405180910390fd5b600083600201819055507f29578a5fcf5472a3574e2c2a77bc77f9224216e6acbf7e613138974a5264e1368483604051612ec4929190613f97565b60405180910390a150505050565b60006009600a9054906101000a900461ffff1682600960049054906101000a900461ffff16612f01919061419d565b612f0a85613098565b60ff16600960029054906101000a900461ffff16612f28919061419d565b600960009054906101000a900461ffff16612f4391906140ad565b612f4d91906140ad565b612f5791906140ad565b905092915050565b6000612f88612710612f7a84866130ae90919063ffffffff16565b6130c490919063ffffffff16565b905092915050565b600080612fa5612f9f856130da565b84612ed2565b90506009600a9054906101000a900461ffff1681612fc39190614233565b91505092915050565b600033905090565b60008060009054906101000a900473ffffffffffffffffffffffffffffffffffffffff169050816000806101000a81548173ffffffffffffffffffffffffffffffffffffffff021916908373ffffffffffffffffffffffffffffffffffffffff1602179055508173ffffffffffffffffffffffffffffffffffffffff168173ffffffffffffffffffffffffffffffffffffffff167f8be0079c531659141344cd1fd0a4f28419497f9722a3daafe3b4186f6b6457e060405160405180910390a35050565b60008160646130a7919061429b565b9050919050565b600081836130bc91906141d9565b905092915050565b600081836130d2919061416c565b905092915050565b60008160646130e9919061429b565b9050919050565b6000813590506130ff816150e6565b92915050565b60008083601f84011261311757600080fd5b8235905067ffffffffffffffff81111561313057600080fd5b60208301915083602082028301111561314857600080fd5b9250929050565b60008151905061315e816150fd565b92915050565b60008135905061317381615114565b92915050565b6000813590506131888161512b565b92915050565b60008135905061319d81615142565b92915050565b6000602082840312156131b557600080fd5b60006131c3848285016130f0565b91505092915050565b6000806000806000606086880312156131e457600080fd5b600086013567ffffffffffffffff8111156131fe57600080fd5b61320a88828901613105565b9550955050602086013567ffffffffffffffff81111561322957600080fd5b61323588828901613105565b9350935050604061324888828901613179565b9150509295509295909350565b60006020828403121561326757600080fd5b60006132758482850161314f565b91505092915050565b60006020828403121561329057600080fd5b600061329e84828501613179565b91505092915050565b600080604083850312156132ba57600080fd5b60006132c885828601613179565b92505060206132d985828601613164565b9150509250929050565b6000806000606084860312156132f857600080fd5b600061330686828701613179565b93505060206133178682870161318e565b925050604061332886828701613164565b9150509250925092565b6000806000806080858703121561334857600080fd5b600061335687828801613179565b94505060206133678782880161318e565b93505060406133788782880161318e565b925050606061338987828801613164565b91505092959194509250565b60006133a18383613903565b60208301905092915050565b6133b6816142cf565b82525050565b60006133c782614068565b6133d1818561408b565b93506133dc83614058565b8060005b8381101561340d5781516133f48882613395565b97506133ff8361407e565b9250506001810190506133e0565b5085935050505092915050565b61342381614345565b82525050565b61343281614369565b82525050565b600061344382614073565b61344d818561409c565b935061345d81856020860161437b565b61346681614516565b840191505092915050565b600061347e60378361409c565b915061348982614527565b604082019050919050565b60006134a1602f8361409c565b91506134ac82614576565b604082019050919050565b60006134c460308361409c565b91506134cf826145c5565b604082019050919050565b60006134e760468361409c565b91506134f282614614565b606082019050919050565b600061350a60268361409c565b915061351582614689565b604082019050919050565b600061352d606c8361409c565b9150613538826146d8565b608082019050919050565b600061355060268361409c565b915061355b82614773565b604082019050919050565b6000613573602e8361409c565b915061357e826147c2565b604082019050919050565b600061359660238361409c565b91506135a182614811565b604082019050919050565b60006135b960278361409c565b91506135c482614860565b604082019050919050565b60006135dc60418361409c565b91506135e7826148af565b606082019050919050565b60006135ff603b8361409c565b915061360a82614924565b604082019050919050565b600061362260378361409c565b915061362d82614973565b604082019050919050565b6000613645603e8361409c565b9150613650826149c2565b604082019050919050565b6000613668605f8361409c565b915061367382614a11565b606082019050919050565b600061368b603a8361409c565b915061369682614a86565b604082019050919050565b60006136ae60518361409c565b91506136b982614ad5565b606082019050919050565b60006136d160348361409c565b91506136dc82614b4a565b604082019050919050565b60006136f4605f8361409c565b91506136ff82614b99565b606082019050919050565b6000613717605d8361409c565b915061372282614c0e565b606082019050919050565b600061373a60328361409c565b915061374582614c83565b604082019050919050565b600061375d60518361409c565b915061376882614cd2565b606082019050919050565b600061378060238361409c565b915061378b82614d47565b604082019050919050565b60006137a360208361409c565b91506137ae82614d96565b602082019050919050565b60006137c6601c8361409c565b91506137d182614dbf565b602082019050919050565b60006137e960428361409c565b91506137f482614de8565b606082019050919050565b600061380c60298361409c565b915061381782614e5d565b604082019050919050565b600061382f60458361409c565b915061383a82614eac565b606082019050919050565b600061385260318361409c565b915061385d82614f21565b604082019050919050565b600061387560378361409c565b915061388082614f70565b604082019050919050565b6000613898603e8361409c565b91506138a382614fbf565b604082019050919050565b60006138bb60428361409c565b91506138c68261500e565b606082019050919050565b60006138de60238361409c565b91506138e982615083565b604082019050919050565b6138fd81614300565b82525050565b61390c8161432e565b82525050565b61391b8161432e565b82525050565b61392a81614338565b82525050565b600060208201905061394560008301846133ad565b92915050565b600060608201905061396060008301866133ad565b61396d60208301856133ad565b61397a6040830184613912565b949350505050565b600060408201905061399760008301856133ad565b6139a46020830184613912565b9392505050565b6000610180820190506139c1600083018f6133ad565b6139ce602083018e613921565b6139db604083018d613912565b6139e8606083018c6138f4565b6139f5608083018b613912565b613a0260a083018a613912565b613a0f60c08301896138f4565b613a1c60e08301886138f4565b613a2a610100830187613912565b613a386101208301866133ad565b613a46610140830185613429565b818103610160830152613a598184613438565b90509d9c50505050505050505050505050565b600060c082019050613a8160008301896133ad565b613a8e6020830188613921565b613a9b6040830187613921565b613aa860608301866138f4565b613ab56080830185613912565b613ac260a0830184613912565b979650505050505050565b6000602082019050613ae2600083018461341a565b92915050565b60006020820190508181036000830152613b0181613471565b9050919050565b60006020820190508181036000830152613b2181613494565b9050919050565b60006020820190508181036000830152613b41816134b7565b9050919050565b60006020820190508181036000830152613b61816134da565b9050919050565b60006020820190508181036000830152613b81816134fd565b9050919050565b60006020820190508181036000830152613ba181613520565b9050919050565b60006020820190508181036000830152613bc181613543565b9050919050565b60006020820190508181036000830152613be181613566565b9050919050565b60006020820190508181036000830152613c0181613589565b9050919050565b60006020820190508181036000830152613c21816135ac565b9050919050565b60006020820190508181036000830152613c41816135cf565b9050919050565b60006020820190508181036000830152613c61816135f2565b9050919050565b60006020820190508181036000830152613c8181613615565b9050919050565b60006020820190508181036000830152613ca181613638565b9050919050565b60006020820190508181036000830152613cc18161365b565b9050919050565b60006020820190508181036000830152613ce18161367e565b9050919050565b60006020820190508181036000830152613d01816136a1565b9050919050565b60006020820190508181036000830152613d21816136c4565b9050919050565b60006020820190508181036000830152613d41816136e7565b9050919050565b60006020820190508181036000830152613d618161370a565b9050919050565b60006020820190508181036000830152613d818161372d565b9050919050565b60006020820190508181036000830152613da181613750565b9050919050565b60006020820190508181036000830152613dc181613773565b9050919050565b60006020820190508181036000830152613de181613796565b9050919050565b60006020820190508181036000830152613e01816137b9565b9050919050565b60006020820190508181036000830152613e21816137dc565b9050919050565b60006020820190508181036000830152613e41816137ff565b9050919050565b60006020820190508181036000830152613e6181613822565b9050919050565b60006020820190508181036000830152613e8181613845565b9050919050565b60006020820190508181036000830152613ea181613868565b9050919050565b60006020820190508181036000830152613ec18161388b565b9050919050565b60006020820190508181036000830152613ee1816138ae565b9050919050565b60006020820190508181036000830152613f01816138d1565b9050919050565b6000602082019050613f1d60008301846138f4565b92915050565b6000604082019050613f3860008301856138f4565b613f4560208301846138f4565b9392505050565b6000602082019050613f616000830184613912565b92915050565b6000604082019050613f7c6000830185613912565b8181036020830152613f8e81846133bc565b90509392505050565b6000604082019050613fac6000830185613912565b613fb96020830184613912565b9392505050565b6000608082019050613fd56000830187613912565b613fe26020830186613912565b613fef6040830185613921565b613ffc60608301846138f4565b95945050505050565b600060a08201905061401a6000830188613912565b6140276020830187613912565b6140346040830186613921565b6140416060830185613921565b61404e60808301846138f4565b9695505050505050565b6000819050602082019050919050565b600081519050919050565b600081519050919050565b6000602082019050919050565b600082825260208201905092915050565b600082825260208201905092915050565b60006140b882614300565b91506140c383614300565b92508261ffff038211156140da576140d961445a565b5b828201905092915050565b60006140f08261432e565b91506140fb8361432e565b9250827fffffffffffffffffffffffffffffffffffffffffffffffffffffffffffffffff038211156141305761412f61445a565b5b828201905092915050565b600061414682614300565b915061415183614300565b92508261416157614160614489565b5b828204905092915050565b60006141778261432e565b91506141828361432e565b92508261419257614191614489565b5b828204905092915050565b60006141a882614300565b91506141b383614300565b92508161ffff04831182151516156141ce576141cd61445a565b5b828202905092915050565b60006141e48261432e565b91506141ef8361432e565b9250817fffffffffffffffffffffffffffffffffffffffffffffffffffffffffffffffff04831182151516156142285761422761445a565b5b828202905092915050565b600061423e82614300565b915061424983614300565b92508282101561425c5761425b61445a565b5b828203905092915050565b60006142728261432e565b915061427d8361432e565b9250828210156142905761428f61445a565b5b828203905092915050565b60006142a682614338565b91506142b183614338565b9250828210156142c4576142c361445a565b5b828203905092915050565b60006142da8261430e565b9050919050565b60008115159050919050565b60008190506142fb826150d2565b919050565b600061ffff82169050919050565b600073ffffffffffffffffffffffffffffffffffffffff82169050919050565b6000819050919050565b600060ff82169050919050565b600061435082614357565b9050919050565b60006143628261430e565b9050919050565b6000614374826142ed565b9050919050565b60005b8381101561439957808201518184015260208101905061437e565b838111156143a8576000848401525b50505050565b600060028204905060018216806143c657607f821691505b602082108114156143da576143d96144e7565b5b50919050565b60006143eb8261432e565b91507fffffffffffffffffffffffffffffffffffffffffffffffffffffffffffffffff82141561441e5761441d61445a565b5b600182019050919050565b600061443482614300565b915061443f83614300565b92508261444f5761444e614489565b5b828206905092915050565b7f4e487b7100000000000000000000000000000000000000000000000000000000600052601160045260246000fd5b7f4e487b7100000000000000000000000000000000000000000000000000000000600052601260045260246000fd5b7f4e487b7100000000000000000000000000000000000000000000000000000000600052602160045260246000fd5b7f4e487b7100000000000000000000000000000000000000000000000000000000600052602260045260246000fd5b6000601f19601f8301169050919050565b7f41726520796f75207375726520796f75206d617463686564206c6f616e73207760008201527f6869636820617265206e6f772070616964206261636b3f000000000000000000602082015250565b7f4e6f2070726f7669646564206361706974616c2069732061747461636865642060008201527f746f207468697320616464726573730000000000000000000000000000000000602082015250565b7f546865206d6178207269736b206c6576656c2063616e27742062652061626f7660008201527f65204d41585f5249534b5f4c4556454c00000000000000000000000000000000602082015250565b7f546865206c6f636b2d757020706572696f642028696e206461797329206d757360008201527f742062652061206d756c7469706c65206f6620554c4f414e5f45504f43485f4960208201527f4e5f444159530000000000000000000000000000000000000000000000000000604082015250565b7f596f752063757272656e746c792068617665206e6f7468696e6720746f20776960008201527f7468647261770000000000000000000000000000000000000000000000000000602082015250565b7f4f6e65206f72206d6f7265206f6620746865206361706974616c2070726f766960008201527f6465727320646f65736e2774206861766520656e6f756768206361706974616c60208201527f20746f2066756e6420746865206c6f616e20696e207468652070726f706f727460408201527f696f6e2070726f706f7365640000000000000000000000000000000000000000606082015250565b7f4f776e61626c653a206e6577206f776e657220697320746865207a65726f206160008201527f6464726573730000000000000000000000000000000000000000000000000000602082015250565b7f54686520616d6f756e742063616e2774206265206c6f776572207468616e204d60008201527f494e5f4c4f414e5f414d4f554e54000000000000000000000000000000000000602082015250565b7f546865206c6f616e20697320726561647920666f722072657061796d656e742060008201527f7965740000000000000000000000000000000000000000000000000000000000602082015250565b7f546865206c6f616e206d7573742062652066756e64656420746f20626520776960008201527f7468647261776e00000000000000000000000000000000000000000000000000602082015250565b7f546865206c6f636b2d757020706572696f642063616e2774206265206c6f6e6760008201527f6572207468616e204d41585f4c4f414e5f4455524154494f4e5f494e5f44415960208201527f5300000000000000000000000000000000000000000000000000000000000000604082015250565b7f546865206d6178207269736b206c6576656c2063616e277420626520736d616c60008201527f6c6572207468616e20746865206d696e207269736b206c6576656c0000000000602082015250565b7f546865207472616e73666572206f662066756e64732066726f6d20554c6f616e60008201527f20746f20796f7572206163636f756e74206661696c6564000000000000000000602082015250565b7f596f75206d75737420686176652061206372656469742073636f726520746f2060008201527f726571756573742061206c6f616e2e20476574206f6e65206669727374210000602082015250565b7f4f6e65206f72206d6f7265206f6620746865206361706974616c2070726f766960008201527f64657273206c6f636b20757020706572696f642069736e27742068696768206560208201527f6e6f75676820746f206d617463682074686174206f6620746865206c6f616e00604082015250565b7f596f752063616e6e6f742077697468647261772066756e64732066726f6d206160008201527f2066756e647320796f75206469646e277420696e697469617465000000000000602082015250565b7f546865206372656469742073636f7265206f6620746865206c6f616e2773206260008201527f6f72726f77657220697320746f6f206c6f7720666f7220746865206c656e646560208201527f7220286c6f616e20746f6f207269736b29000000000000000000000000000000604082015250565b7f4c6f616e732073686f756c642062652070616964206261636b2062792074686f60008201527f73652077686f20696e697469617465207468656d000000000000000000000000602082015250565b7f546865206372656469742073636f7265206f6620746865206c6f616e2773206260008201527f6f72726f77657220697320746f6f206869676820666f7220746865206c656e6460208201527f657220286c6f616e206e6f74206167677265737369766520656e6f7567682900604082015250565b7f546865207472616e73666572206f662066756e6473206661696c65642c20646f60008201527f20796f75206861766520656e6f7567682066756e647320617070726f7665642060208201527f666f72207472616e7366657220746f207468652070726f746f636f6c3f000000604082015250565b7f546865206c656e677468206f66207468652070726f766964656420617267756d60008201527f656e747320646f65736e2774206d617463680000000000000000000000000000602082015250565b7f5468652073756d206f662074686520616d6f756e74732070726f76696465642060008201527f646f65736e2774206d617463682074686520616d6f756e74207265717565737460208201527f656420666f722074686973206c6f616e2e000000000000000000000000000000604082015250565b7f54686973206361706974616c2070726f766964657220646f65736e277420657860008201527f6973740000000000000000000000000000000000000000000000000000000000602082015250565b7f4f776e61626c653a2063616c6c6572206973206e6f7420746865206f776e6572600082015250565b7f546865207472616e73666572206f662066756e6473206661696c656400000000600082015250565b7f546865206c6f636b2d757020706572696f642063616e27742062652073686f7260008201527f746572207468616e204d494e5f4c4f434b55505f504552494f445f494e5f444160208201527f5953000000000000000000000000000000000000000000000000000000000000604082015250565b7f596f752063757272656e746c792068617665206e6f206361706974616c20746f60008201527f2077697468647261770000000000000000000000000000000000000000000000602082015250565b7f546865206c6f616e206475726174696f6e2028696e206461797329206d75737460008201527f2062652061206d756c7469706c65206f6620554c4f414e5f45504f43485f494e60208201527f5f44415953000000000000000000000000000000000000000000000000000000604082015250565b7f54686520616d6f756e742063616e2774206265206c6f776572207468616e204d60008201527f494e5f4445504f5349545f414d4f554e54000000000000000000000000000000602082015250565b7f546865206d696e207269736b206c6576656c2063616e277420626520736d616c60008201527f6c6572207468616e204d494e5f5249534b5f4c4556454c000000000000000000602082015250565b7f596f752063616e27742077697468647261772066756e647320796f752064696460008201527f6e27742070726f7669646520696e2074686520666972737420706c6163650000602082015250565b7f546865206c6f636b2d757020706572696f642063616e27742062652073686f7260008201527f746572207468616e204d494e5f4c4f414e5f4455524154494f4e5f494e5f444160208201527f5953000000000000000000000000000000000000000000000000000000000000604082015250565b7f4f6e6c7920726571756573746564206c6f616e732063616e206265206d61746360008201527f6865640000000000000000000000000000000000000000000000000000000000602082015250565b600581106150e3576150e26144b8565b5b50565b6150ef816142cf565b81146150fa57600080fd5b50565b615106816142e1565b811461511157600080fd5b50565b61511d81614300565b811461512857600080fd5b50565b6151348161432e565b811461513f57600080fd5b50565b61514b81614338565b811461515657600080fd5b5056fea2646970667358221220f0f9d3df7bfe3c74f8e213debfb274be43c8ed832682293ebba2071a218ea2d664736f6c63430008040033",
  "linkReferences": {},
  "deployedLinkReferences": {}
}