{
  "_format": "hh-sol-artifact-1",
  "contractName": "ULoan",
  "sourceName": "contracts/ULoan.sol",
  "abi": [
    {
      "inputs": [
        {
          "internalType": "address",
          "name": "_stablecoin",
          "type": "address"
        }
      ],
      "stateMutability": "nonpayable",
      "type": "constructor"
    },
    {
      "anonymous": false,
      "inputs": [
        {
          "indexed": false,
          "internalType": "uint256",
          "name": "capitalProviderId",
          "type": "uint256"
        },
        {
          "indexed": false,
          "internalType": "uint256",
          "name": "amountToRecoup",
          "type": "uint256"
        }
      ],
      "name": "CapitalRecouped",
      "type": "event"
    },
    {
      "anonymous": false,
      "inputs": [
        {
          "indexed": false,
          "internalType": "uint256",
          "name": "loanId",
          "type": "uint256"
        }
      ],
      "name": "LoanMatchedWithCapital",
      "type": "event"
    },
    {
      "anonymous": false,
      "inputs": [
        {
          "indexed": false,
          "internalType": "uint256",
          "name": "loanId",
          "type": "uint256"
        }
      ],
      "name": "LoanPaidBack",
      "type": "event"
    },
    {
      "anonymous": false,
      "inputs": [
        {
          "indexed": false,
          "internalType": "uint256",
          "name": "loanId",
          "type": "uint256"
        },
        {
          "indexed": false,
          "internalType": "uint256",
          "name": "amount",
          "type": "uint256"
        },
        {
          "indexed": false,
          "internalType": "uint8",
          "name": "borrowerCreditScore",
          "type": "uint8"
        },
        {
          "indexed": false,
          "internalType": "uint16",
          "name": "durationInDays",
          "type": "uint16"
        }
      ],
      "name": "LoanRequested",
      "type": "event"
    },
    {
      "anonymous": false,
      "inputs": [
        {
          "indexed": false,
          "internalType": "uint256",
          "name": "loanId",
          "type": "uint256"
        }
      ],
      "name": "LoanWithdrawn",
      "type": "event"
    },
    {
      "anonymous": false,
      "inputs": [
        {
          "indexed": false,
          "internalType": "uint256",
          "name": "capitalProviderId",
          "type": "uint256"
        },
        {
          "indexed": false,
          "internalType": "uint256",
          "name": "amount",
          "type": "uint256"
        },
        {
          "indexed": false,
          "internalType": "uint8",
          "name": "minRiskLevel",
          "type": "uint8"
        },
        {
          "indexed": false,
          "internalType": "uint8",
          "name": "maxRiskLevel",
          "type": "uint8"
        },
        {
          "indexed": false,
          "internalType": "uint16",
          "name": "lockUpPeriodInDays",
          "type": "uint16"
        }
      ],
      "name": "NewCapitalProvided",
      "type": "event"
    },
    {
      "anonymous": false,
      "inputs": [
        {
          "indexed": true,
          "internalType": "address",
          "name": "previousOwner",
          "type": "address"
        },
        {
          "indexed": true,
          "internalType": "address",
          "name": "newOwner",
          "type": "address"
        }
      ],
      "name": "OwnershipTransferred",
      "type": "event"
    },
    {
      "inputs": [],
      "name": "EPOCH_DURATION_COEFFICIENT_BP",
      "outputs": [
        {
          "internalType": "uint16",
          "name": "",
          "type": "uint16"
        }
      ],
      "stateMutability": "view",
      "type": "function"
    },
    {
      "inputs": [],
      "name": "FEE_BP",
      "outputs": [
        {
          "internalType": "uint16",
          "name": "",
          "type": "uint16"
        }
      ],
      "stateMutability": "view",
      "type": "function"
    },
    {
      "inputs": [],
      "name": "FEE_TO_MATCH_INITIATOR_BP",
      "outputs": [
        {
          "internalType": "uint16",
          "name": "",
          "type": "uint16"
        }
      ],
      "stateMutability": "view",
      "type": "function"
    },
    {
      "inputs": [],
      "name": "FEE_TO_PROTOCOL_OWNER_BP",
      "outputs": [
        {
          "internalType": "uint16",
          "name": "",
          "type": "uint16"
        }
      ],
      "stateMutability": "view",
      "type": "function"
    },
    {
      "inputs": [],
      "name": "MAX_LOAN_DURATION_IN_DAYS",
      "outputs": [
        {
          "internalType": "uint256",
          "name": "",
          "type": "uint256"
        }
      ],
      "stateMutability": "view",
      "type": "function"
    },
    {
      "inputs": [],
      "name": "MAX_RISK_LEVEL",
      "outputs": [
        {
          "internalType": "uint256",
          "name": "",
          "type": "uint256"
        }
      ],
      "stateMutability": "view",
      "type": "function"
    },
    {
      "inputs": [],
      "name": "MIN_DEPOSIT_AMOUNT",
      "outputs": [
        {
          "internalType": "uint256",
          "name": "",
          "type": "uint256"
        }
      ],
      "stateMutability": "view",
      "type": "function"
    },
    {
      "inputs": [],
      "name": "MIN_LOAN_AMOUNT",
      "outputs": [
        {
          "internalType": "uint256",
          "name": "",
          "type": "uint256"
        }
      ],
      "stateMutability": "view",
      "type": "function"
    },
    {
      "inputs": [],
      "name": "MIN_LOAN_DURATION_IN_DAYS",
      "outputs": [
        {
          "internalType": "uint256",
          "name": "",
          "type": "uint256"
        }
      ],
      "stateMutability": "view",
      "type": "function"
    },
    {
      "inputs": [],
      "name": "MIN_LOCKUP_PERIOD_IN_DAYS",
      "outputs": [
        {
          "internalType": "uint256",
          "name": "",
          "type": "uint256"
        }
      ],
      "stateMutability": "view",
      "type": "function"
    },
    {
      "inputs": [],
      "name": "MIN_RISK_LEVEL",
      "outputs": [
        {
          "internalType": "uint256",
          "name": "",
          "type": "uint256"
        }
      ],
      "stateMutability": "view",
      "type": "function"
    },
    {
      "inputs": [],
      "name": "RISK_COEFFICIENT_BP",
      "outputs": [
        {
          "internalType": "uint16",
          "name": "",
          "type": "uint16"
        }
      ],
      "stateMutability": "view",
      "type": "function"
    },
    {
      "inputs": [],
      "name": "RISK_FREE_RATE_BP",
      "outputs": [
        {
          "internalType": "uint16",
          "name": "",
          "type": "uint16"
        }
      ],
      "stateMutability": "view",
      "type": "function"
    },
    {
      "inputs": [],
      "name": "ULOAN_EPOCH_IN_DAYS",
      "outputs": [
        {
          "internalType": "uint16",
          "name": "",
          "type": "uint16"
        }
      ],
      "stateMutability": "view",
      "type": "function"
    },
    {
      "inputs": [
        {
          "internalType": "uint256",
          "name": "",
          "type": "uint256"
        }
      ],
      "name": "capitalProviders",
      "outputs": [
        {
          "internalType": "address",
          "name": "lender",
          "type": "address"
        },
        {
          "internalType": "uint8",
          "name": "minRiskLevel",
          "type": "uint8"
        },
        {
          "internalType": "uint8",
          "name": "maxRiskLevel",
          "type": "uint8"
        },
        {
          "internalType": "uint16",
          "name": "lockUpPeriodInDays",
          "type": "uint16"
        },
        {
          "internalType": "uint256",
          "name": "amountProvided",
          "type": "uint256"
        },
        {
          "internalType": "uint256",
          "name": "amountAvailable",
          "type": "uint256"
        }
      ],
      "stateMutability": "view",
      "type": "function"
    },
    {
      "inputs": [
        {
          "internalType": "uint256",
          "name": "_amount",
          "type": "uint256"
        },
        {
          "internalType": "uint8",
          "name": "_minRiskLevel",
          "type": "uint8"
        },
        {
          "internalType": "uint8",
          "name": "_maxRiskLevel",
          "type": "uint8"
        },
        {
          "internalType": "uint16",
          "name": "_lockUpPeriodInDays",
          "type": "uint16"
        }
      ],
      "name": "depositCapital",
      "outputs": [],
      "stateMutability": "nonpayable",
      "type": "function"
    },
    {
      "inputs": [
        {
          "internalType": "uint256",
          "name": "_amount",
          "type": "uint256"
        },
        {
          "internalType": "uint8",
          "name": "_creditScore",
          "type": "uint8"
        },
        {
          "internalType": "uint16",
          "name": "_durationInDays",
          "type": "uint16"
        }
      ],
      "name": "getInterestEstimateInBasisPoint",
      "outputs": [
        {
          "internalType": "uint16",
          "name": "",
          "type": "uint16"
        }
      ],
      "stateMutability": "view",
      "type": "function"
    },
    {
      "inputs": [],
      "name": "getLoansMatchingFees",
      "outputs": [],
      "stateMutability": "nonpayable",
      "type": "function"
    },
    {
      "inputs": [],
      "name": "getProtocolOwnerFees",
      "outputs": [],
      "stateMutability": "nonpayable",
      "type": "function"
    },
    {
      "inputs": [
        {
          "internalType": "uint256",
          "name": "_amount",
          "type": "uint256"
        },
        {
          "internalType": "uint8",
          "name": "_minRiskLevel",
          "type": "uint8"
        },
        {
          "internalType": "uint8",
          "name": "_maxRiskLevel",
          "type": "uint8"
        },
        {
          "internalType": "uint16",
          "name": "_lockUpPeriodInDays",
          "type": "uint16"
        }
      ],
      "name": "getReturnEstimateInBasisPoint",
      "outputs": [
        {
          "internalType": "uint16",
          "name": "",
          "type": "uint16"
        },
        {
          "internalType": "uint16",
          "name": "",
          "type": "uint16"
        }
      ],
      "stateMutability": "view",
      "type": "function"
    },
    {
      "inputs": [
        {
          "internalType": "uint256",
          "name": "",
          "type": "uint256"
        }
      ],
      "name": "loans",
      "outputs": [
        {
          "internalType": "address",
          "name": "borrower",
          "type": "address"
        },
        {
          "internalType": "uint8",
          "name": "creditScore",
          "type": "uint8"
        },
        {
          "internalType": "uint256",
          "name": "lastActionTimestamp",
          "type": "uint256"
        },
        {
          "internalType": "uint16",
          "name": "durationInDays",
          "type": "uint16"
        },
        {
          "internalType": "uint256",
          "name": "amountRequested",
          "type": "uint256"
        },
        {
          "internalType": "uint256",
          "name": "amountToRepay",
          "type": "uint256"
        },
        {
          "internalType": "uint16",
          "name": "totalNumberOfEpochsToPay",
          "type": "uint16"
        },
        {
          "internalType": "uint16",
          "name": "numberOfEpochsPaid",
          "type": "uint16"
        },
        {
          "internalType": "uint256",
          "name": "amountToRepayEveryEpoch",
          "type": "uint256"
        },
        {
          "internalType": "address",
          "name": "matchMaker",
          "type": "address"
        },
        {
          "internalType": "enum ULoan.LoanState",
          "name": "state",
          "type": "uint8"
        },
        {
          "internalType": "string",
          "name": "closeReason",
          "type": "string"
        }
      ],
      "stateMutability": "view",
      "type": "function"
    },
    {
      "inputs": [
        {
          "internalType": "uint256[]",
          "name": "_capitalProviderIds",
          "type": "uint256[]"
        },
        {
          "internalType": "uint256[]",
          "name": "_capitalProviderAmounts",
          "type": "uint256[]"
        },
        {
          "internalType": "uint256",
          "name": "_loanId",
          "type": "uint256"
        }
      ],
      "name": "matchLoanWithCapital",
      "outputs": [],
      "stateMutability": "nonpayable",
      "type": "function"
    },
    {
      "inputs": [],
      "name": "owner",
      "outputs": [
        {
          "internalType": "address",
          "name": "",
          "type": "address"
        }
      ],
      "stateMutability": "view",
      "type": "function"
    },
    {
      "inputs": [
        {
          "internalType": "uint256",
          "name": "_loanId",
          "type": "uint256"
        }
      ],
      "name": "payLoan",
      "outputs": [],
      "stateMutability": "nonpayable",
      "type": "function"
    },
    {
      "inputs": [
        {
          "internalType": "uint256",
          "name": "_capitalProviderId",
          "type": "uint256"
        }
      ],
      "name": "recoupCapital",
      "outputs": [],
      "stateMutability": "nonpayable",
      "type": "function"
    },
    {
      "inputs": [],
      "name": "renounceOwnership",
      "outputs": [],
      "stateMutability": "nonpayable",
      "type": "function"
    },
    {
      "inputs": [
        {
          "internalType": "uint256",
          "name": "_amount",
          "type": "uint256"
        },
        {
          "internalType": "uint16",
          "name": "_durationInDays",
          "type": "uint16"
        }
      ],
      "name": "requestLoan",
      "outputs": [],
      "stateMutability": "nonpayable",
      "type": "function"
    },
    {
      "inputs": [],
      "name": "stablecoin",
      "outputs": [
        {
          "internalType": "contract IERC20",
          "name": "",
          "type": "address"
        }
      ],
      "stateMutability": "view",
      "type": "function"
    },
    {
      "inputs": [
        {
          "internalType": "address",
          "name": "newOwner",
          "type": "address"
        }
      ],
      "name": "transferOwnership",
      "outputs": [],
      "stateMutability": "nonpayable",
      "type": "function"
    },
    {
      "inputs": [
        {
          "internalType": "uint256",
          "name": "_loanId",
          "type": "uint256"
        }
      ],
      "name": "withdrawLoanFunds",
      "outputs": [],
      "stateMutability": "nonpayable",
      "type": "function"
    }
  ],
  "bytecode": "0x60806040526007600160146101000a81548161ffff021916908361ffff160217905550678ac7230489e80000600255600160149054906101000a900461ffff1661ffff1660035560016004556064600555600254600655600160149054906101000a900461ffff1661ffff166007556034600160149054906101000a900461ffff166200008d91906200035d565b61ffff166008556064600960006101000a81548161ffff021916908361ffff1602179055506014600960026101000a81548161ffff021916908361ffff1602179055506001600960046101000a81548161ffff021916908361ffff16021790555060c8600960066101000a81548161ffff021916908361ffff1602179055506064600960086101000a81548161ffff021916908361ffff160217905550600960089054906101000a900461ffff16600960069054906101000a900461ffff166200015891906200031e565b6009600a6101000a81548161ffff021916908361ffff1602179055503480156200018157600080fd5b5060405162005056380380620050568339818101604052810190620001a79190620002f2565b620001c7620001bb6200020f60201b60201c565b6200021760201b60201c565b80600160006101000a81548173ffffffffffffffffffffffffffffffffffffffff021916908373ffffffffffffffffffffffffffffffffffffffff160217905550506200042b565b600033905090565b60008060009054906101000a900473ffffffffffffffffffffffffffffffffffffffff169050816000806101000a81548173ffffffffffffffffffffffffffffffffffffffff021916908373ffffffffffffffffffffffffffffffffffffffff1602179055508173ffffffffffffffffffffffffffffffffffffffff168173ffffffffffffffffffffffffffffffffffffffff167f8be0079c531659141344cd1fd0a4f28419497f9722a3daafe3b4186f6b6457e060405160405180910390a35050565b600081519050620002ec8162000411565b92915050565b6000602082840312156200030557600080fd5b60006200031584828501620002db565b91505092915050565b60006200032b82620003b4565b91506200033883620003b4565b92508261ffff03821115620003525762000351620003e2565b5b828201905092915050565b60006200036a82620003b4565b91506200037783620003b4565b92508161ffff0483118215151615620003955762000394620003e2565b5b828202905092915050565b6000620003ad82620003c2565b9050919050565b600061ffff82169050919050565b600073ffffffffffffffffffffffffffffffffffffffff82169050919050565b7f4e487b7100000000000000000000000000000000000000000000000000000000600052601160045260246000fd5b6200041c81620003a0565b81146200042857600080fd5b50565b614c1b806200043b6000396000f3fe608060405234801561001057600080fd5b50600436106101da5760003560e01c80638da5cb5b11610104578063c19400e1116100a2578063e9e00a5c11610071578063e9e00a5c14610512578063f2fde38b1461052e578063f2fef0e81461054a578063f577264814610554576101da565b8063c19400e114610491578063de0f6ff01461049b578063e1ec3c68146104b9578063e9cbd822146104f4576101da565b8063a80fb586116100de578063a80fb58614610404578063a8d7b3ec14610439578063af83176814610455578063b9d276e314610473576101da565b80638da5cb5b146103aa5780639351fc79146103c857806396fa212f146103e6576101da565b80635a1a75f11161017c57806374eef6e81161014b57806374eef6e81461033457806378d95472146103525780637ce0267d1461037057806384190f551461038e576101da565b80635a1a75f1146102be5780636bc23272146102dc5780636f323df4146102fa578063715018a61461032a576101da565b80631ddea99d116101b85780631ddea99d146102355780631ea30fef1461025357806328feb3211461027157806336a4d861146102a2576101da565b806304ed2b27146101df5780630675b0bc146101fd5780630dade0d114610219575b600080fd5b6101e7610572565b6040516101f49190613adf565b60405180910390f35b61021760048036038101906102129190612f45565b610578565b005b610233600480360381019061022e9190612f1c565b61096e565b005b61023d610c85565b60405161024a9190613a9b565b60405180910390f35b61025b610c99565b6040516102689190613adf565b60405180910390f35b61028b60048036038101906102869190612fd0565b610c9f565b604051610299929190613ab6565b60405180910390f35b6102bc60048036038101906102b79190612f1c565b610ec1565b005b6102c661115c565b6040516102d39190613a9b565b60405180910390f35b6102e4611170565b6040516102f19190613adf565b60405180910390f35b610314600480360381019061030f9190612f81565b611176565b6040516103219190613a9b565b60405180910390f35b6103326112df565b005b61033c611367565b6040516103499190613a9b565b60405180910390f35b61035a61137b565b6040516103679190613a9b565b60405180910390f35b61037861138f565b6040516103859190613a9b565b60405180910390f35b6103a860048036038101906103a39190612e6a565b6113a3565b005b6103b2611ba9565b6040516103bf9190613503565b60405180910390f35b6103d0611bd2565b6040516103dd9190613adf565b60405180910390f35b6103ee611bd8565b6040516103fb9190613adf565b60405180910390f35b61041e60048036038101906104199190612f1c565b611bde565b6040516104309695949392919061363f565b60405180910390f35b610453600480360381019061044e9190612f1c565b611c62565b005b61045d612198565b60405161046a9190613a9b565b60405180910390f35b61047b6121ac565b6040516104889190613adf565b60405180910390f35b6104996121b2565b005b6104a361236a565b6040516104b09190613a9b565b60405180910390f35b6104d360048036038101906104ce9190612f1c565b61237e565b6040516104eb9c9b9a9998979695949392919061357e565b60405180910390f35b6104fc6124ea565b60405161050991906136a0565b60405180910390f35b61052c60048036038101906105279190612fd0565b612510565b005b61054860048036038101906105439190612e41565b6128fe565b005b6105526129f6565b005b61055c612b6a565b6040516105699190613adf565b60405180910390f35b60055481565b6000600e60003373ffffffffffffffffffffffffffffffffffffffff1673ffffffffffffffffffffffffffffffffffffffff16815260200190815260200160002060009054906101000a900460ff16905060008160ff161161060f576040517f08c379a00000000000000000000000000000000000000000000000000000000081526004016106069061383b565b60405180910390fd5b6007548261ffff161015610658576040517f08c379a000000000000000000000000000000000000000000000000000000000815260040161064f90613a5b565b60405180910390fd5b6008548261ffff1611156106a1576040517f08c379a0000000000000000000000000000000000000000000000000000000008152600401610698906137db565b60405180910390fd5b6000600160149054906101000a900461ffff16836106bf9190613f53565b61ffff1614610703576040517f08c379a00000000000000000000000000000000000000000000000000000000081526004016106fa906139db565b60405180910390fd5b600654831015610748576040517f08c379a000000000000000000000000000000000000000000000000000000000815260040161073f9061377b565b60405180910390fd5b6000600160149054906101000a900461ffff16836107669190613c65565b90506000610781856107788585612b70565b61ffff16612bfd565b8561078c9190613c0f565b90506000600160149054906101000a900461ffff16856107ac9190613c65565b9050600c60008154809291906107c190613f0a565b91905055506000600d6000600c5481526020019081526020016000209050338160000160006101000a81548173ffffffffffffffffffffffffffffffffffffffff021916908373ffffffffffffffffffffffffffffffffffffffff160217905550848160000160146101000a81548160ff021916908360ff160217905550428160010181905550858160020160006101000a81548161ffff021916908361ffff160217905550868160030181905550828160040181905550600060ff168160050160026101000a81548161ffff021916908361ffff160217905550818160050160006101000a81548161ffff021916908361ffff1602179055508161ffff16876108cb9190613c96565b816006018190555060008160090160006101000a81548160ff02191690836004811115610921577f4e487b7100000000000000000000000000000000000000000000000000000000600052602160045260246000fd5b02179055507f7722f473b37b021a54db94de783bc81d8ea00ab0636a52d88fa32583b8a83e12600c5488878960405161095d9493929190613b23565b60405180910390a150505050505050565b6000600d600083815260200190815260200160002090503373ffffffffffffffffffffffffffffffffffffffff168160000160009054906101000a900473ffffffffffffffffffffffffffffffffffffffff1673ffffffffffffffffffffffffffffffffffffffff1614610a17576040517f08c379a0000000000000000000000000000000000000000000000000000000008152600401610a0e9061387b565b60405180910390fd5b60016004811115610a51577f4e487b7100000000000000000000000000000000000000000000000000000000600052602160045260246000fd5b8160090160009054906101000a900460ff166004811115610a9b577f4e487b7100000000000000000000000000000000000000000000000000000000600052602160045260246000fd5b14610adb576040517f08c379a0000000000000000000000000000000000000000000000000000000008152600401610ad2906137bb565b60405180910390fd5b6000600160009054906101000a900473ffffffffffffffffffffffffffffffffffffffff1673ffffffffffffffffffffffffffffffffffffffff1663a9059cbb8360000160009054906101000a900473ffffffffffffffffffffffffffffffffffffffff1684600301546040518363ffffffff1660e01b8152600401610b62929190613555565b602060405180830381600087803b158015610b7c57600080fd5b505af1158015610b90573d6000803e3d6000fd5b505050506040513d601f19601f82011682018060405250810190610bb49190612ef3565b905080610bf6576040517f08c379a0000000000000000000000000000000000000000000000000000000008152600401610bed9061399b565b60405180910390fd5b60028260090160006101000a81548160ff02191690836004811115610c44577f4e487b7100000000000000000000000000000000000000000000000000000000600052602160045260246000fd5b02179055507f80d20af2588d80a09297ff6168a12b09b961c8034b35de8001af787cc6d57bdb83604051610c789190613adf565b60405180910390a1505050565b600960049054906101000a900461ffff1681565b60025481565b60008085858585600254841015610ceb576040517f08c379a0000000000000000000000000000000000000000000000000000000008152600401610ce2906139fb565b60405180910390fd5b6004548360ff161015610d33576040517f08c379a0000000000000000000000000000000000000000000000000000000008152600401610d2a90613a1b565b60405180910390fd5b8260ff168260ff161015610d7c576040517f08c379a0000000000000000000000000000000000000000000000000000000008152600401610d73906137fb565b60405180910390fd5b6005548260ff161115610dc4576040517f08c379a0000000000000000000000000000000000000000000000000000000008152600401610dbb906136db565b60405180910390fd5b6003548161ffff161015610e0d576040517f08c379a0000000000000000000000000000000000000000000000000000000008152600401610e04906139bb565b60405180910390fd5b6000600160149054906101000a900461ffff1682610e2b9190613f53565b61ffff1614610e6f576040517f08c379a0000000000000000000000000000000000000000000000000000000008152600401610e66906136fb565b60405180910390fd5b6000600160149054906101000a900461ffff1688610e8d9190613c65565b90506000610e9b8b83612c2e565b90506000610ea98b84612c2e565b90508181985098505050505050505094509492505050565b600a54811115610f06576040517f08c379a0000000000000000000000000000000000000000000000000000000008152600401610efd9061395b565b60405180910390fd5b6000600b600083815260200190815260200160002090506000816002015490503373ffffffffffffffffffffffffffffffffffffffff168260000160009054906101000a900473ffffffffffffffffffffffffffffffffffffffff1673ffffffffffffffffffffffffffffffffffffffff1614610fb8576040517f08c379a0000000000000000000000000000000000000000000000000000000008152600401610faf90613a3b565b60405180910390fd5b6000811015610ffc576040517f08c379a0000000000000000000000000000000000000000000000000000000008152600401610ff39061371b565b60405180910390fd5b6000600160009054906101000a900473ffffffffffffffffffffffffffffffffffffffff1673ffffffffffffffffffffffffffffffffffffffff1663a9059cbb8460000160009054906101000a900473ffffffffffffffffffffffffffffffffffffffff16846040518363ffffffff1660e01b815260040161107f929190613555565b602060405180830381600087803b15801561109957600080fd5b505af11580156110ad573d6000803e3d6000fd5b505050506040513d601f19601f820116820180604052508101906110d19190612ef3565b905080611113576040517f08c379a000000000000000000000000000000000000000000000000000000000815260040161110a9061381b565b60405180910390fd5b600083600201819055507f757c09facdd1c100d67976b3ad0a4a2ff17dc20107825de74f47852197891a87848360405161114e929190613afa565b60405180910390a150505050565b600960009054906101000a900461ffff1681565b60045481565b60006007548261ffff1610156111c1576040517f08c379a00000000000000000000000000000000000000000000000000000000081526004016111b890613a5b565b60405180910390fd5b6008548261ffff16111561120a576040517f08c379a0000000000000000000000000000000000000000000000000000000008152600401611201906137db565b60405180910390fd5b6000600160149054906101000a900461ffff16836112289190613f53565b61ffff161461126c576040517f08c379a0000000000000000000000000000000000000000000000000000000008152600401611263906139db565b60405180910390fd5b6006548410156112b1576040517f08c379a00000000000000000000000000000000000000000000000000000000081526004016112a89061377b565b60405180910390fd5b6112d683600160149054906101000a900461ffff16846112d19190613c65565b612b70565b90509392505050565b6112e7612c6a565b73ffffffffffffffffffffffffffffffffffffffff16611305611ba9565b73ffffffffffffffffffffffffffffffffffffffff161461135b576040517f08c379a00000000000000000000000000000000000000000000000000000000081526004016113529061397b565b60405180910390fd5b6113656000612c72565b565b600160149054906101000a900461ffff1681565b600960089054906101000a900461ffff1681565b600960029054906101000a900461ffff1681565b6000600d60008381526020019081526020016000209050600060048111156113f4577f4e487b7100000000000000000000000000000000000000000000000000000000600052602160045260246000fd5b8160090160009054906101000a900460ff16600481111561143e577f4e487b7100000000000000000000000000000000000000000000000000000000600052602160045260246000fd5b1461147e576040517f08c379a000000000000000000000000000000000000000000000000000000000815260040161147590613a7b565b60405180910390fd5b8383905086869050146114c6576040517f08c379a00000000000000000000000000000000000000000000000000000000081526004016114bd9061391b565b60405180910390fd5b600080600090505b8585905081101561153957858582818110611512577f4e487b7100000000000000000000000000000000000000000000000000000000600052603260045260246000fd5b90506020020135826115249190613c0f565b9150808061153190613f0a565b9150506114ce565b5080826003015414611580576040517f08c379a00000000000000000000000000000000000000000000000000000000081526004016115779061393b565b60405180910390fd5b60005b878790508111611ac957600a548888838181106115c9577f4e487b7100000000000000000000000000000000000000000000000000000000600052603260045260246000fd5b905060200201351115611611576040517f08c379a00000000000000000000000000000000000000000000000000000000081526004016116089061395b565b60405180910390fd5b6000600b60008a8a85818110611650577f4e487b7100000000000000000000000000000000000000000000000000000000600052603260045260246000fd5b90506020020135815260200190815260200160002090508686838181106116a0577f4e487b7100000000000000000000000000000000000000000000000000000000600052603260045260246000fd5b90506020020135816002015410156116ed576040517f08c379a00000000000000000000000000000000000000000000000000000000081526004016116e49061373b565b60405180910390fd5b6117078460000160149054906101000a900460ff16612d36565b60ff168160000160149054906101000a900460ff1660ff161015611760576040517f08c379a0000000000000000000000000000000000000000000000000000000008152600401611757906138db565b60405180910390fd5b61177a8460000160149054906101000a900460ff16612d36565b60ff168160000160159054906101000a900460ff1660ff1611156117d3576040517f08c379a00000000000000000000000000000000000000000000000000000000081526004016117ca9061389b565b60405180910390fd5b8360020160009054906101000a900461ffff1661ffff168160000160169054906101000a900461ffff1661ffff161015611842576040517f08c379a00000000000000000000000000000000000000000000000000000000081526004016118399061385b565b60405180910390fd5b6000600160149054906101000a900461ffff168560020160009054906101000a900461ffff166118729190613c65565b905060006118996118938760000160149054906101000a900460ff16612d36565b83612c2e565b905060006118ea8a8a878181106118d9577f4e487b7100000000000000000000000000000000000000000000000000000000600052603260045260246000fd5b905060200201358361ffff16612bfd565b8a8a87818110611923577f4e487b7100000000000000000000000000000000000000000000000000000000600052603260045260246000fd5b905060200201356119349190613c0f565b90508360030188908060018154018082558091505060019003906000526020600020016000909190919091505589898681811061199a577f4e487b7100000000000000000000000000000000000000000000000000000000600052603260045260246000fd5b905060200201358460020160008282546119b49190613d91565b925050819055508660080160405180608001604052808e8e89818110611a03577f4e487b7100000000000000000000000000000000000000000000000000000000600052603260045260246000fd5b9050602002013581526020018c8c89818110611a48577f4e487b7100000000000000000000000000000000000000000000000000000000600052603260045260246000fd5b90506020020135815260200183815260200160008152509080600181540180825580915050600190039060005260206000209060040201600090919091909150600082015181600001556020820151816001015560408201518160020155606082015181600301555050505050508080611ac190613f0a565b915050611583565b5060018260090160006101000a81548160ff02191690836004811115611b18577f4e487b7100000000000000000000000000000000000000000000000000000000600052602160045260246000fd5b0217905550428260010181905550338260070160006101000a81548173ffffffffffffffffffffffffffffffffffffffff021916908373ffffffffffffffffffffffffffffffffffffffff1602179055507ffde33b8869af8f25c9d3bf154cd6594dd24be754e7c9ee59e760c64aca2bef6283604051611b989190613adf565b60405180910390a150505050505050565b60008060009054906101000a900473ffffffffffffffffffffffffffffffffffffffff16905090565b60075481565b60065481565b600b6020528060005260406000206000915090508060000160009054906101000a900473ffffffffffffffffffffffffffffffffffffffff16908060000160149054906101000a900460ff16908060000160159054906101000a900460ff16908060000160169054906101000a900461ffff16908060010154908060020154905086565b6000600d600083815260200190815260200160002090503373ffffffffffffffffffffffffffffffffffffffff168160000160009054906101000a900473ffffffffffffffffffffffffffffffffffffffff1673ffffffffffffffffffffffffffffffffffffffff1614611d0b576040517f08c379a0000000000000000000000000000000000000000000000000000000008152600401611d02906138bb565b60405180910390fd5b60026004811115611d45577f4e487b7100000000000000000000000000000000000000000000000000000000600052602160045260246000fd5b8160090160009054906101000a900460ff166004811115611d8f577f4e487b7100000000000000000000000000000000000000000000000000000000600052602160045260246000fd5b14611dcf576040517f08c379a0000000000000000000000000000000000000000000000000000000008152600401611dc69061379b565b60405180910390fd5b6000600160009054906101000a900473ffffffffffffffffffffffffffffffffffffffff1673ffffffffffffffffffffffffffffffffffffffff166323b872dd333085600601546040518463ffffffff1660e01b8152600401611e349392919061351e565b602060405180830381600087803b158015611e4e57600080fd5b505af1158015611e62573d6000803e3d6000fd5b505050506040513d601f19601f82011682018060405250810190611e869190612ef3565b905080611ec8576040517f08c379a0000000000000000000000000000000000000000000000000000000008152600401611ebf906138fb565b60405180910390fd5b42826001018190555060018260050160029054906101000a900461ffff16611ef09190613bd7565b8260050160026101000a81548161ffff021916908361ffff16021790555060005b82600801805490508111611ffe576000836008018281548110611f5d577f4e487b7100000000000000000000000000000000000000000000000000000000600052603260045260246000fd5b9060005260206000209060040201905060008460050160009054906101000a900461ffff1661ffff168260020154611f959190613c96565b905080826003016000828254611fab9190613c0f565b925050819055506000600b600084600001548152602001908152602001600020905081816002016000828254611fe19190613c0f565b925050819055505050508080611ff690613f0a565b915050611f11565b508160050160009054906101000a900461ffff1661ffff168260050160029054906101000a900461ffff1661ffff1614156121935760038260090160006101000a81548160ff02191690836004811115612081577f4e487b7100000000000000000000000000000000000000000000000000000000600052602160045260246000fd5b02179055506120a88260030154600960069054906101000a900461ffff1661ffff16612bfd565b600f60008460070160009054906101000a900473ffffffffffffffffffffffffffffffffffffffff1673ffffffffffffffffffffffffffffffffffffffff1673ffffffffffffffffffffffffffffffffffffffff168152602001908152602001600020600082825461211a9190613c0f565b925050819055506121438260030154600960089054906101000a900461ffff1661ffff16612bfd565b601060008282546121549190613c0f565b925050819055507f60c5bf138604dd0054d792d746e9850320594eff02d83fad60ac81adb9184b248360405161218a9190613adf565b60405180910390a15b505050565b6009600a9054906101000a900461ffff1681565b60035481565b6000600f60003373ffffffffffffffffffffffffffffffffffffffff1673ffffffffffffffffffffffffffffffffffffffff168152602001908152602001600020541415612235576040517f08c379a000000000000000000000000000000000000000000000000000000000815260040161222c906136bb565b60405180910390fd5b6000600160009054906101000a900473ffffffffffffffffffffffffffffffffffffffff1673ffffffffffffffffffffffffffffffffffffffff1663a9059cbb33600f60003373ffffffffffffffffffffffffffffffffffffffff1673ffffffffffffffffffffffffffffffffffffffff168152602001908152602001600020546040518363ffffffff1660e01b81526004016122d3929190613555565b602060405180830381600087803b1580156122ed57600080fd5b505af1158015612301573d6000803e3d6000fd5b505050506040513d601f19601f820116820180604052508101906123259190612ef3565b905080612367576040517f08c379a000000000000000000000000000000000000000000000000000000000815260040161235e9061381b565b60405180910390fd5b50565b600960069054906101000a900461ffff1681565b600d6020528060005260406000206000915090508060000160009054906101000a900473ffffffffffffffffffffffffffffffffffffffff16908060000160149054906101000a900460ff16908060010154908060020160009054906101000a900461ffff16908060030154908060040154908060050160009054906101000a900461ffff16908060050160029054906101000a900461ffff16908060060154908060070160009054906101000a900473ffffffffffffffffffffffffffffffffffffffff16908060090160009054906101000a900460ff169080600a01805461246790613ed8565b80601f016020809104026020016040519081016040528092919081815260200182805461249390613ed8565b80156124e05780601f106124b5576101008083540402835291602001916124e0565b820191906000526020600020905b8154815290600101906020018083116124c357829003601f168201915b505050505090508c565b600160009054906101000a900473ffffffffffffffffffffffffffffffffffffffff1681565b83838383600254841015612559576040517f08c379a0000000000000000000000000000000000000000000000000000000008152600401612550906139fb565b60405180910390fd5b6004548360ff1610156125a1576040517f08c379a000000000000000000000000000000000000000000000000000000000815260040161259890613a1b565b60405180910390fd5b8260ff168260ff1610156125ea576040517f08c379a00000000000000000000000000000000000000000000000000000000081526004016125e1906137fb565b60405180910390fd5b6005548260ff161115612632576040517f08c379a0000000000000000000000000000000000000000000000000000000008152600401612629906136db565b60405180910390fd5b6003548161ffff16101561267b576040517f08c379a0000000000000000000000000000000000000000000000000000000008152600401612672906139bb565b60405180910390fd5b6000600160149054906101000a900461ffff16826126999190613f53565b61ffff16146126dd576040517f08c379a00000000000000000000000000000000000000000000000000000000081526004016126d4906136fb565b60405180910390fd5b6000600160009054906101000a900473ffffffffffffffffffffffffffffffffffffffff1673ffffffffffffffffffffffffffffffffffffffff166323b872dd33308c6040518463ffffffff1660e01b815260040161273e9392919061351e565b602060405180830381600087803b15801561275857600080fd5b505af115801561276c573d6000803e3d6000fd5b505050506040513d601f19601f820116820180604052508101906127909190612ef3565b9050806127d2576040517f08c379a00000000000000000000000000000000000000000000000000000000081526004016127c9906138fb565b60405180910390fd5b600a60008154809291906127e590613f0a565b91905055506000600b6000600a5481526020019081526020016000209050338160000160006101000a81548173ffffffffffffffffffffffffffffffffffffffff021916908373ffffffffffffffffffffffffffffffffffffffff160217905550888160000160146101000a81548160ff021916908360ff160217905550878160000160156101000a81548160ff021916908360ff160217905550868160000160166101000a81548161ffff021916908361ffff1602179055508981600101819055508981600201819055507f25df0c7e962e4bc702adc27ab2fd8b03e966ac294bb0139e4e15a2dc40be8689600a548b8b8b8b6040516128ea959493929190613b68565b60405180910390a150505050505050505050565b612906612c6a565b73ffffffffffffffffffffffffffffffffffffffff16612924611ba9565b73ffffffffffffffffffffffffffffffffffffffff161461297a576040517f08c379a00000000000000000000000000000000000000000000000000000000081526004016129719061397b565b60405180910390fd5b600073ffffffffffffffffffffffffffffffffffffffff168173ffffffffffffffffffffffffffffffffffffffff1614156129ea576040517f08c379a00000000000000000000000000000000000000000000000000000000081526004016129e19061375b565b60405180910390fd5b6129f381612c72565b50565b6129fe612c6a565b73ffffffffffffffffffffffffffffffffffffffff16612a1c611ba9565b73ffffffffffffffffffffffffffffffffffffffff1614612a72576040517f08c379a0000000000000000000000000000000000000000000000000000000008152600401612a699061397b565b60405180910390fd5b6000600160009054906101000a900473ffffffffffffffffffffffffffffffffffffffff1673ffffffffffffffffffffffffffffffffffffffff1663a9059cbb336010546040518363ffffffff1660e01b8152600401612ad3929190613555565b602060405180830381600087803b158015612aed57600080fd5b505af1158015612b01573d6000803e3d6000fd5b505050506040513d601f19601f82011682018060405250810190612b259190612ef3565b905080612b67576040517f08c379a0000000000000000000000000000000000000000000000000000000008152600401612b5e9061381b565b60405180910390fd5b50565b60085481565b60006009600a9054906101000a900461ffff1682600960049054906101000a900461ffff16612b9f9190613cc7565b612ba885612d36565b60ff16600960029054906101000a900461ffff16612bc69190613cc7565b600960009054906101000a900461ffff16612be19190613bd7565b612beb9190613bd7565b612bf59190613bd7565b905092915050565b6000612c26612710612c188486612d4c90919063ffffffff16565b612d6290919063ffffffff16565b905092915050565b600080612c43612c3d85612d78565b84612b70565b90506009600a9054906101000a900461ffff1681612c619190613d5d565b91505092915050565b600033905090565b60008060009054906101000a900473ffffffffffffffffffffffffffffffffffffffff169050816000806101000a81548173ffffffffffffffffffffffffffffffffffffffff021916908373ffffffffffffffffffffffffffffffffffffffff1602179055508173ffffffffffffffffffffffffffffffffffffffff168173ffffffffffffffffffffffffffffffffffffffff167f8be0079c531659141344cd1fd0a4f28419497f9722a3daafe3b4186f6b6457e060405160405180910390a35050565b6000816064612d459190613dc5565b9050919050565b60008183612d5a9190613d03565b905092915050565b60008183612d709190613c96565b905092915050565b6000816064612d879190613dc5565b9050919050565b600081359050612d9d81614b72565b92915050565b60008083601f840112612db557600080fd5b8235905067ffffffffffffffff811115612dce57600080fd5b602083019150836020820283011115612de657600080fd5b9250929050565b600081519050612dfc81614b89565b92915050565b600081359050612e1181614ba0565b92915050565b600081359050612e2681614bb7565b92915050565b600081359050612e3b81614bce565b92915050565b600060208284031215612e5357600080fd5b6000612e6184828501612d8e565b91505092915050565b600080600080600060608688031215612e8257600080fd5b600086013567ffffffffffffffff811115612e9c57600080fd5b612ea888828901612da3565b9550955050602086013567ffffffffffffffff811115612ec757600080fd5b612ed388828901612da3565b93509350506040612ee688828901612e17565b9150509295509295909350565b600060208284031215612f0557600080fd5b6000612f1384828501612ded565b91505092915050565b600060208284031215612f2e57600080fd5b6000612f3c84828501612e17565b91505092915050565b60008060408385031215612f5857600080fd5b6000612f6685828601612e17565b9250506020612f7785828601612e02565b9150509250929050565b600080600060608486031215612f9657600080fd5b6000612fa486828701612e17565b9350506020612fb586828701612e2c565b9250506040612fc686828701612e02565b9150509250925092565b60008060008060808587031215612fe657600080fd5b6000612ff487828801612e17565b945050602061300587828801612e2c565b935050604061301687828801612e2c565b925050606061302787828801612e02565b91505092959194509250565b61303c81613df9565b82525050565b61304b81613e6f565b82525050565b61305a81613e93565b82525050565b600061306b82613bbb565b6130758185613bc6565b9350613085818560208601613ea5565b61308e81614040565b840191505092915050565b60006130a6603783613bc6565b91506130b182614051565b604082019050919050565b60006130c9603083613bc6565b91506130d4826140a0565b604082019050919050565b60006130ec604683613bc6565b91506130f7826140ef565b606082019050919050565b600061310f602683613bc6565b915061311a82614164565b604082019050919050565b6000613132606c83613bc6565b915061313d826141b3565b608082019050919050565b6000613155602683613bc6565b91506131608261424e565b604082019050919050565b6000613178602e83613bc6565b91506131838261429d565b604082019050919050565b600061319b602383613bc6565b91506131a6826142ec565b604082019050919050565b60006131be602783613bc6565b91506131c98261433b565b604082019050919050565b60006131e1604183613bc6565b91506131ec8261438a565b606082019050919050565b6000613204603b83613bc6565b915061320f826143ff565b604082019050919050565b6000613227603783613bc6565b91506132328261444e565b604082019050919050565b600061324a603e83613bc6565b91506132558261449d565b604082019050919050565b600061326d605f83613bc6565b9150613278826144ec565b606082019050919050565b6000613290603a83613bc6565b915061329b82614561565b604082019050919050565b60006132b3605183613bc6565b91506132be826145b0565b606082019050919050565b60006132d6603483613bc6565b91506132e182614625565b604082019050919050565b60006132f9605f83613bc6565b915061330482614674565b606082019050919050565b600061331c605d83613bc6565b9150613327826146e9565b606082019050919050565b600061333f603283613bc6565b915061334a8261475e565b604082019050919050565b6000613362605183613bc6565b915061336d826147ad565b606082019050919050565b6000613385602383613bc6565b915061339082614822565b604082019050919050565b60006133a8602083613bc6565b91506133b382614871565b602082019050919050565b60006133cb601c83613bc6565b91506133d68261489a565b602082019050919050565b60006133ee604283613bc6565b91506133f9826148c3565b606082019050919050565b6000613411604583613bc6565b915061341c82614938565b606082019050919050565b6000613434603183613bc6565b915061343f826149ad565b604082019050919050565b6000613457603783613bc6565b9150613462826149fc565b604082019050919050565b600061347a603e83613bc6565b915061348582614a4b565b604082019050919050565b600061349d604283613bc6565b91506134a882614a9a565b606082019050919050565b60006134c0602383613bc6565b91506134cb82614b0f565b604082019050919050565b6134df81613e2a565b82525050565b6134ee81613e58565b82525050565b6134fd81613e62565b82525050565b60006020820190506135186000830184613033565b92915050565b60006060820190506135336000830186613033565b6135406020830185613033565b61354d60408301846134e5565b949350505050565b600060408201905061356a6000830185613033565b61357760208301846134e5565b9392505050565b600061018082019050613594600083018f613033565b6135a1602083018e6134f4565b6135ae604083018d6134e5565b6135bb606083018c6134d6565b6135c8608083018b6134e5565b6135d560a083018a6134e5565b6135e260c08301896134d6565b6135ef60e08301886134d6565b6135fd6101008301876134e5565b61360b610120830186613033565b613619610140830185613051565b81810361016083015261362c8184613060565b90509d9c50505050505050505050505050565b600060c0820190506136546000830189613033565b61366160208301886134f4565b61366e60408301876134f4565b61367b60608301866134d6565b61368860808301856134e5565b61369560a08301846134e5565b979650505050505050565b60006020820190506136b56000830184613042565b92915050565b600060208201905081810360008301526136d481613099565b9050919050565b600060208201905081810360008301526136f4816130bc565b9050919050565b60006020820190508181036000830152613714816130df565b9050919050565b6000602082019050818103600083015261373481613102565b9050919050565b6000602082019050818103600083015261375481613125565b9050919050565b6000602082019050818103600083015261377481613148565b9050919050565b600060208201905081810360008301526137948161316b565b9050919050565b600060208201905081810360008301526137b48161318e565b9050919050565b600060208201905081810360008301526137d4816131b1565b9050919050565b600060208201905081810360008301526137f4816131d4565b9050919050565b60006020820190508181036000830152613814816131f7565b9050919050565b600060208201905081810360008301526138348161321a565b9050919050565b600060208201905081810360008301526138548161323d565b9050919050565b6000602082019050818103600083015261387481613260565b9050919050565b6000602082019050818103600083015261389481613283565b9050919050565b600060208201905081810360008301526138b4816132a6565b9050919050565b600060208201905081810360008301526138d4816132c9565b9050919050565b600060208201905081810360008301526138f4816132ec565b9050919050565b600060208201905081810360008301526139148161330f565b9050919050565b6000602082019050818103600083015261393481613332565b9050919050565b6000602082019050818103600083015261395481613355565b9050919050565b6000602082019050818103600083015261397481613378565b9050919050565b600060208201905081810360008301526139948161339b565b9050919050565b600060208201905081810360008301526139b4816133be565b9050919050565b600060208201905081810360008301526139d4816133e1565b9050919050565b600060208201905081810360008301526139f481613404565b9050919050565b60006020820190508181036000830152613a1481613427565b9050919050565b60006020820190508181036000830152613a348161344a565b9050919050565b60006020820190508181036000830152613a548161346d565b9050919050565b60006020820190508181036000830152613a7481613490565b9050919050565b60006020820190508181036000830152613a94816134b3565b9050919050565b6000602082019050613ab060008301846134d6565b92915050565b6000604082019050613acb60008301856134d6565b613ad860208301846134d6565b9392505050565b6000602082019050613af460008301846134e5565b92915050565b6000604082019050613b0f60008301856134e5565b613b1c60208301846134e5565b9392505050565b6000608082019050613b3860008301876134e5565b613b4560208301866134e5565b613b5260408301856134f4565b613b5f60608301846134d6565b95945050505050565b600060a082019050613b7d60008301886134e5565b613b8a60208301876134e5565b613b9760408301866134f4565b613ba460608301856134f4565b613bb160808301846134d6565b9695505050505050565b600081519050919050565b600082825260208201905092915050565b6000613be282613e2a565b9150613bed83613e2a565b92508261ffff03821115613c0457613c03613f84565b5b828201905092915050565b6000613c1a82613e58565b9150613c2583613e58565b9250827fffffffffffffffffffffffffffffffffffffffffffffffffffffffffffffffff03821115613c5a57613c59613f84565b5b828201905092915050565b6000613c7082613e2a565b9150613c7b83613e2a565b925082613c8b57613c8a613fb3565b5b828204905092915050565b6000613ca182613e58565b9150613cac83613e58565b925082613cbc57613cbb613fb3565b5b828204905092915050565b6000613cd282613e2a565b9150613cdd83613e2a565b92508161ffff0483118215151615613cf857613cf7613f84565b5b828202905092915050565b6000613d0e82613e58565b9150613d1983613e58565b9250817fffffffffffffffffffffffffffffffffffffffffffffffffffffffffffffffff0483118215151615613d5257613d51613f84565b5b828202905092915050565b6000613d6882613e2a565b9150613d7383613e2a565b925082821015613d8657613d85613f84565b5b828203905092915050565b6000613d9c82613e58565b9150613da783613e58565b925082821015613dba57613db9613f84565b5b828203905092915050565b6000613dd082613e62565b9150613ddb83613e62565b925082821015613dee57613ded613f84565b5b828203905092915050565b6000613e0482613e38565b9050919050565b60008115159050919050565b6000819050613e2582614b5e565b919050565b600061ffff82169050919050565b600073ffffffffffffffffffffffffffffffffffffffff82169050919050565b6000819050919050565b600060ff82169050919050565b6000613e7a82613e81565b9050919050565b6000613e8c82613e38565b9050919050565b6000613e9e82613e17565b9050919050565b60005b83811015613ec3578082015181840152602081019050613ea8565b83811115613ed2576000848401525b50505050565b60006002820490506001821680613ef057607f821691505b60208210811415613f0457613f03614011565b5b50919050565b6000613f1582613e58565b91507fffffffffffffffffffffffffffffffffffffffffffffffffffffffffffffffff821415613f4857613f47613f84565b5b600182019050919050565b6000613f5e82613e2a565b9150613f6983613e2a565b925082613f7957613f78613fb3565b5b828206905092915050565b7f4e487b7100000000000000000000000000000000000000000000000000000000600052601160045260246000fd5b7f4e487b7100000000000000000000000000000000000000000000000000000000600052601260045260246000fd5b7f4e487b7100000000000000000000000000000000000000000000000000000000600052602160045260246000fd5b7f4e487b7100000000000000000000000000000000000000000000000000000000600052602260045260246000fd5b6000601f19601f8301169050919050565b7f41726520796f75207375726520796f75206d617463686564206c6f616e73207760008201527f6869636820617265206e6f772070616964206261636b3f000000000000000000602082015250565b7f546865206d6178207269736b206c6576656c2063616e27742062652061626f7660008201527f65204d41585f5249534b5f4c4556454c00000000000000000000000000000000602082015250565b7f546865206c6f636b2d757020706572696f642028696e206461797329206d757360008201527f742062652061206d756c7469706c65206f6620554c4f414e5f45504f43485f4960208201527f4e5f444159530000000000000000000000000000000000000000000000000000604082015250565b7f596f752063757272656e746c792068617665206e6f7468696e6720746f20776960008201527f7468647261770000000000000000000000000000000000000000000000000000602082015250565b7f4f6e65206f72206d6f7265206f6620746865206361706974616c2070726f766960008201527f6465727320646f65736e2774206861766520656e6f756768206361706974616c60208201527f20746f2066756e6420746865206c6f616e20696e207468652070726f706f727460408201527f696f6e2070726f706f7365640000000000000000000000000000000000000000606082015250565b7f4f776e61626c653a206e6577206f776e657220697320746865207a65726f206160008201527f6464726573730000000000000000000000000000000000000000000000000000602082015250565b7f54686520616d6f756e742063616e2774206265206c6f776572207468616e204d60008201527f494e5f4c4f414e5f414d4f554e54000000000000000000000000000000000000602082015250565b7f546865206c6f616e20697320726561647920666f722072657061796d656e742060008201527f7965740000000000000000000000000000000000000000000000000000000000602082015250565b7f546865206c6f616e206d7573742062652066756e64656420746f20626520776960008201527f7468647261776e00000000000000000000000000000000000000000000000000602082015250565b7f546865206c6f636b2d757020706572696f642063616e2774206265206c6f6e6760008201527f6572207468616e204d41585f4c4f414e5f4455524154494f4e5f494e5f44415960208201527f5300000000000000000000000000000000000000000000000000000000000000604082015250565b7f546865206d6178207269736b206c6576656c2063616e277420626520736d616c60008201527f6c6572207468616e20746865206d696e207269736b206c6576656c0000000000602082015250565b7f546865207472616e73666572206f662066756e64732066726f6d20554c6f616e60008201527f20746f20796f7572206163636f756e74206661696c6564000000000000000000602082015250565b7f596f75206d75737420686176652061206372656469742073636f726520746f2060008201527f726571756573742061206c6f616e2e20476574206f6e65206669727374210000602082015250565b7f4f6e65206f72206d6f7265206f6620746865206361706974616c2070726f766960008201527f64657273206c6f636b20757020706572696f642069736e27742068696768206560208201527f6e6f75676820746f206d617463682074686174206f6620746865206c6f616e00604082015250565b7f596f752063616e6e6f742077697468647261772066756e64732066726f6d206160008201527f2066756e647320796f75206469646e277420696e697469617465000000000000602082015250565b7f546865206372656469742073636f7265206f6620746865206c6f616e2773206260008201527f6f72726f77657220697320746f6f206c6f7720666f7220746865206c656e646560208201527f7220286c6f616e20746f6f207269736b29000000000000000000000000000000604082015250565b7f4c6f616e732073686f756c642062652070616964206261636b2062792074686f60008201527f73652077686f20696e697469617465207468656d000000000000000000000000602082015250565b7f546865206372656469742073636f7265206f6620746865206c6f616e2773206260008201527f6f72726f77657220697320746f6f206869676820666f7220746865206c656e6460208201527f657220286c6f616e206e6f74206167677265737369766520656e6f7567682900604082015250565b7f546865207472616e73666572206f662066756e6473206661696c65642c20646f60008201527f20796f75206861766520656e6f7567682066756e647320617070726f7665642060208201527f666f72207472616e7366657220746f207468652070726f746f636f6c3f000000604082015250565b7f546865206c656e677468206f66207468652070726f766964656420617267756d60008201527f656e747320646f65736e2774206d617463680000000000000000000000000000602082015250565b7f5468652073756d206f662074686520616d6f756e74732070726f76696465642060008201527f646f65736e2774206d617463682074686520616d6f756e74207265717565737460208201527f656420666f722074686973206c6f616e2e000000000000000000000000000000604082015250565b7f54686973206361706974616c2070726f766964657220646f65736e277420657860008201527f6973740000000000000000000000000000000000000000000000000000000000602082015250565b7f4f776e61626c653a2063616c6c6572206973206e6f7420746865206f776e6572600082015250565b7f546865207472616e73666572206f662066756e6473206661696c656400000000600082015250565b7f546865206c6f636b2d757020706572696f642063616e27742062652073686f7260008201527f746572207468616e204d494e5f4c4f434b55505f504552494f445f494e5f444160208201527f5953000000000000000000000000000000000000000000000000000000000000604082015250565b7f546865206c6f616e206475726174696f6e2028696e206461797329206d75737460008201527f2062652061206d756c7469706c65206f6620554c4f414e5f45504f43485f494e60208201527f5f44415953000000000000000000000000000000000000000000000000000000604082015250565b7f54686520616d6f756e742063616e2774206265206c6f776572207468616e204d60008201527f494e5f4445504f5349545f414d4f554e54000000000000000000000000000000602082015250565b7f546865206d696e207269736b206c6576656c2063616e277420626520736d616c60008201527f6c6572207468616e204d494e5f5249534b5f4c4556454c000000000000000000602082015250565b7f596f752063616e27742077697468647261772066756e647320796f752064696460008201527f6e27742070726f7669646520696e2074686520666972737420706c6163650000602082015250565b7f546865206c6f636b2d757020706572696f642063616e27742062652073686f7260008201527f746572207468616e204d494e5f4c4f414e5f4455524154494f4e5f494e5f444160208201527f5953000000000000000000000000000000000000000000000000000000000000604082015250565b7f4f6e6c7920726571756573746564206c6f616e732063616e206265206d61746360008201527f6865640000000000000000000000000000000000000000000000000000000000602082015250565b60058110614b6f57614b6e613fe2565b5b50565b614b7b81613df9565b8114614b8657600080fd5b50565b614b9281613e0b565b8114614b9d57600080fd5b50565b614ba981613e2a565b8114614bb457600080fd5b50565b614bc081613e58565b8114614bcb57600080fd5b50565b614bd781613e62565b8114614be257600080fd5b5056fea264697066735822122019c7bbf0c15ca555a6d5c015d45ee409cdf03c3e8f6024b08da8a3cafffa97d164736f6c63430008040033",
  "linkReferences": {},
  "deployedLinkReferences": {}
}